{
  "_format": "hh-sol-artifact-1",
  "contractName": "Marketplace",
  "sourceName": "src/backend/contracts/Marketplace.sol",
  "abi": [
    {
      "inputs": [
        {
          "internalType": "uint256",
          "name": "_feePercent",
          "type": "uint256"
        },
        {
          "internalType": "uint256",
          "name": "_resellPercent",
          "type": "uint256"
        }
      ],
      "stateMutability": "nonpayable",
      "type": "constructor"
    },
    {
      "anonymous": false,
      "inputs": [
        {
          "indexed": false,
          "internalType": "uint256",
          "name": "itemId",
          "type": "uint256"
        },
        {
          "indexed": true,
          "internalType": "address",
          "name": "nft",
          "type": "address"
        },
        {
          "indexed": false,
          "internalType": "uint256",
          "name": "tokenId",
          "type": "uint256"
        },
        {
          "indexed": false,
          "internalType": "uint256",
          "name": "price",
          "type": "uint256"
        },
        {
          "indexed": true,
          "internalType": "address",
          "name": "seller",
          "type": "address"
        },
        {
          "indexed": true,
          "internalType": "address",
          "name": "buyer",
          "type": "address"
        }
      ],
      "name": "Bought",
      "type": "event"
    },
    {
      "anonymous": false,
      "inputs": [
        {
          "indexed": false,
          "internalType": "uint256",
          "name": "id",
          "type": "uint256"
        },
        {
          "indexed": false,
          "internalType": "uint256",
          "name": "tipAmount",
          "type": "uint256"
        },
        {
          "indexed": false,
          "internalType": "address payable",
          "name": "owner",
          "type": "address"
        }
      ],
      "name": "NFTTipped",
      "type": "event"
    },
    {
      "anonymous": false,
      "inputs": [
        {
          "indexed": false,
          "internalType": "uint256",
          "name": "itemId",
          "type": "uint256"
        },
        {
          "indexed": true,
          "internalType": "address",
          "name": "nft",
          "type": "address"
        },
        {
          "indexed": false,
          "internalType": "uint256",
          "name": "tokenId",
          "type": "uint256"
        },
        {
          "indexed": false,
          "internalType": "uint256",
          "name": "price",
          "type": "uint256"
        },
        {
          "indexed": true,
          "internalType": "address",
          "name": "seller",
          "type": "address"
        }
      ],
      "name": "Offered",
      "type": "event"
    },
    {
      "inputs": [],
      "name": "feeAccount",
      "outputs": [
        {
          "internalType": "address payable",
          "name": "",
          "type": "address"
        }
      ],
      "stateMutability": "view",
      "type": "function"
    },
    {
      "inputs": [],
      "name": "feePercent",
      "outputs": [
        {
          "internalType": "uint256",
          "name": "",
          "type": "uint256"
        }
      ],
      "stateMutability": "view",
      "type": "function"
    },
    {
      "inputs": [
        {
          "internalType": "uint256",
          "name": "_itemId",
          "type": "uint256"
        }
      ],
      "name": "getResellPrice",
      "outputs": [
        {
          "internalType": "uint256",
          "name": "",
          "type": "uint256"
        }
      ],
      "stateMutability": "view",
      "type": "function"
    },
    {
      "inputs": [
        {
          "internalType": "uint256",
          "name": "_itemId",
          "type": "uint256"
        }
      ],
      "name": "getTotalPrice",
      "outputs": [
        {
          "internalType": "uint256",
          "name": "",
          "type": "uint256"
        }
      ],
      "stateMutability": "view",
      "type": "function"
    },
    {
      "inputs": [],
      "name": "itemCount",
      "outputs": [
        {
          "internalType": "uint256",
          "name": "",
          "type": "uint256"
        }
      ],
      "stateMutability": "view",
      "type": "function"
    },
    {
      "inputs": [
        {
          "internalType": "uint256",
          "name": "",
          "type": "uint256"
        }
      ],
      "name": "items",
      "outputs": [
        {
          "internalType": "uint256",
          "name": "itemId",
          "type": "uint256"
        },
        {
          "internalType": "contract IERC721",
          "name": "nft",
          "type": "address"
        },
        {
          "internalType": "uint256",
          "name": "tokenId",
          "type": "uint256"
        },
        {
          "internalType": "uint256",
          "name": "price",
          "type": "uint256"
        },
        {
          "internalType": "address payable",
          "name": "seller",
          "type": "address"
        },
        {
          "internalType": "address payable",
          "name": "owner",
          "type": "address"
        },
        {
          "internalType": "bool",
          "name": "sold",
          "type": "bool"
        },
        {
          "internalType": "uint256",
          "name": "tipAmount",
          "type": "uint256"
        }
      ],
      "stateMutability": "view",
      "type": "function"
    },
    {
      "inputs": [
        {
          "internalType": "contract IERC721",
          "name": "_nft",
          "type": "address"
        },
        {
          "internalType": "uint256",
          "name": "_tokenId",
          "type": "uint256"
        },
        {
          "internalType": "uint256",
          "name": "_price",
          "type": "uint256"
        }
      ],
      "name": "makeItem",
      "outputs": [],
      "stateMutability": "nonpayable",
      "type": "function"
    },
    {
      "inputs": [
        {
          "internalType": "uint256",
          "name": "_itemId",
          "type": "uint256"
        }
      ],
      "name": "purchaseItem",
      "outputs": [],
      "stateMutability": "payable",
      "type": "function"
    },
    {
      "inputs": [],
      "name": "resellPercent",
      "outputs": [
        {
          "internalType": "uint256",
          "name": "",
          "type": "uint256"
        }
      ],
      "stateMutability": "view",
      "type": "function"
    },
    {
      "inputs": [
        {
          "internalType": "uint256",
          "name": "_itemId",
          "type": "uint256"
        }
      ],
      "name": "sellItem",
      "outputs": [],
      "stateMutability": "payable",
      "type": "function"
    },
    {
      "inputs": [
        {
          "internalType": "uint256",
          "name": "_id",
          "type": "uint256"
        }
      ],
      "name": "tipOwner",
      "outputs": [],
      "stateMutability": "payable",
      "type": "function"
    }
  ],
  "bytecode": "0x60e06040523480156200001157600080fd5b5060405162001df538038062001df58339818101604052810190620000379190620000a5565b60016000819055503373ffffffffffffffffffffffffffffffffffffffff1660808173ffffffffffffffffffffffffffffffffffffffff1660601b815250508160a081815250508060c0818152505050506200010a565b6000815190506200009f81620000f0565b92915050565b60008060408385031215620000b957600080fd5b6000620000c9858286016200008e565b9250506020620000dc858286016200008e565b9150509250929050565b6000819050919050565b620000fb81620000e6565b81146200010757600080fd5b50565b60805160601c60a05160c051611ca3620001526000396000818161028e01526106f80152600081816107460152610b5e01526000818161071c0152610d840152611ca36000f3fe60806040526004361061009c5760003560e01c80637fd6f15c116100645780637fd6f15c1461017b57806391b6be9a146101a6578063bfb231d2146101c2578063ca7dd37514610206578063d38ea5bf14610243578063fa00afc71461025f5761009c565b806346ae5cc3146100a15780635611b8c8146100de5780636037ca64146100fa57806365e17c9d146101255780636bfb0d0114610150575b600080fd5b3480156100ad57600080fd5b506100c860048036038101906100c3919061144e565b610288565b6040516100d59190611747565b60405180910390f35b6100f860048036038101906100f3919061144e565b6102eb565b005b34801561010657600080fd5b5061010f6106f6565b60405161011c9190611747565b60405180910390f35b34801561013157600080fd5b5061013a61071a565b60405161014791906115f5565b60405180910390f35b34801561015c57600080fd5b5061016561073e565b6040516101729190611747565b60405180910390f35b34801561018757600080fd5b50610190610744565b60405161019d9190611747565b60405180910390f35b6101c060048036038101906101bb919061144e565b610768565b005b3480156101ce57600080fd5b506101e960048036038101906101e4919061144e565b610aa3565b6040516101fd989796959493929190611762565b60405180910390f35b34801561021257600080fd5b5061022d6004803603810190610228919061144e565b610b58565b60405161023a9190611747565b60405180910390f35b61025d6004803603810190610258919061144e565b610bbb565b005b34801561026b57600080fd5b50610286600480360381019061028191906113ff565b610fcc565b005b600060647f000000000000000000000000000000000000000000000000000000000000000060646102b9919061185f565b60026000858152602001908152602001600020600301546102da91906118e6565b6102e491906118b5565b9050919050565b6000811180156102fd57506001548111155b61033c576040517f08c379a000000000000000000000000000000000000000000000000000000000815260040161033390611667565b60405180910390fd5b60006002600083815260200190815260200160002060405180610100016040529081600082015481526020016001820160009054906101000a900473ffffffffffffffffffffffffffffffffffffffff1673ffffffffffffffffffffffffffffffffffffffff1673ffffffffffffffffffffffffffffffffffffffff16815260200160028201548152602001600382015481526020016004820160009054906101000a900473ffffffffffffffffffffffffffffffffffffffff1673ffffffffffffffffffffffffffffffffffffffff1673ffffffffffffffffffffffffffffffffffffffff1681526020016005820160009054906101000a900473ffffffffffffffffffffffffffffffffffffffff1673ffffffffffffffffffffffffffffffffffffffff1673ffffffffffffffffffffffffffffffffffffffff1681526020016005820160149054906101000a900460ff1615151515815260200160068201548152505090503373ffffffffffffffffffffffffffffffffffffffff16816080015173ffffffffffffffffffffffffffffffffffffffff161415610517576040517f08c379a000000000000000000000000000000000000000000000000000000000815260040161050e90611707565b60405180910390fd5b806080015173ffffffffffffffffffffffffffffffffffffffff166108fc349081150290604051600060405180830381858888f19350505050158015610561573d6000803e3d6000fd5b50348160e001818151610574919061185f565b9150818152505080600260008481526020019081526020016000206000820151816000015560208201518160010160006101000a81548173ffffffffffffffffffffffffffffffffffffffff021916908373ffffffffffffffffffffffffffffffffffffffff160217905550604082015181600201556060820151816003015560808201518160040160006101000a81548173ffffffffffffffffffffffffffffffffffffffff021916908373ffffffffffffffffffffffffffffffffffffffff16021790555060a08201518160050160006101000a81548173ffffffffffffffffffffffffffffffffffffffff021916908373ffffffffffffffffffffffffffffffffffffffff16021790555060c08201518160050160146101000a81548160ff02191690831515021790555060e082015181600601559050507faecf5b876d33d32fc589c904cf29d60963cba0189f459c2e3b30b6cf12ed72d5828260e0015183608001516040516106ea939291906117e0565b60405180910390a15050565b7f000000000000000000000000000000000000000000000000000000000000000081565b7f000000000000000000000000000000000000000000000000000000000000000081565b60015481565b7f000000000000000000000000000000000000000000000000000000000000000081565b600260005414156107ae576040517f08c379a00000000000000000000000000000000000000000000000000000000081526004016107a590611727565b60405180910390fd5b600260008190555060006107c182610288565b905060006002600084815260200190815260200160002090506000831180156107ec57506001548311155b61082b576040517f08c379a0000000000000000000000000000000000000000000000000000000008152600401610822906116c7565b60405180910390fd5b3373ffffffffffffffffffffffffffffffffffffffff168160050160009054906101000a900473ffffffffffffffffffffffffffffffffffffffff1673ffffffffffffffffffffffffffffffffffffffff16146108bd576040517f08c379a00000000000000000000000000000000000000000000000000000000081526004016108b4906116e7565b60405180910390fd5b8060010160009054906101000a900473ffffffffffffffffffffffffffffffffffffffff1673ffffffffffffffffffffffffffffffffffffffff166323b872dd333084600201546040518463ffffffff1660e01b815260040161092293929190611610565b600060405180830381600087803b15801561093c57600080fd5b505af1158015610950573d6000803e3d6000fd5b5050505060008160050160146101000a81548160ff021916908315150217905550818160030181905550338160040160006101000a81548173ffffffffffffffffffffffffffffffffffffffff021916908373ffffffffffffffffffffffffffffffffffffffff1602179055506109c630611313565b3073ffffffffffffffffffffffffffffffffffffffff168160040160009054906101000a900473ffffffffffffffffffffffffffffffffffffffff1673ffffffffffffffffffffffffffffffffffffffff168260010160009054906101000a900473ffffffffffffffffffffffffffffffffffffffff1673ffffffffffffffffffffffffffffffffffffffff167f8b4c9c8a607d67b321582dd8461041b1dc2ceeca70c8b7f37f8e02095cf2e76d8685600201548660030154604051610a8e93929190611817565b60405180910390a45050600160008190555050565b60026020528060005260406000206000915090508060000154908060010160009054906101000a900473ffffffffffffffffffffffffffffffffffffffff16908060020154908060030154908060040160009054906101000a900473ffffffffffffffffffffffffffffffffffffffff16908060050160009054906101000a900473ffffffffffffffffffffffffffffffffffffffff16908060050160149054906101000a900460ff16908060060154905088565b600060647f00000000000000000000000000000000000000000000000000000000000000006064610b89919061185f565b6002600085815260200190815260200160002060030154610baa91906118e6565b610bb491906118b5565b9050919050565b60026000541415610c01576040517f08c379a0000000000000000000000000000000000000000000000000000000008152600401610bf890611727565b60405180910390fd5b60026000819055506000610c1482610b58565b90506000600260008481526020019081526020016000209050600083118015610c3f57506001548311155b610c7e576040517f08c379a0000000000000000000000000000000000000000000000000000000008152600401610c75906116c7565b60405180910390fd5b81341015610cc1576040517f08c379a0000000000000000000000000000000000000000000000000000000008152600401610cb8906116a7565b60405180910390fd5b8060050160149054906101000a900460ff1615610d13576040517f08c379a0000000000000000000000000000000000000000000000000000000008152600401610d0a90611647565b60405180910390fd5b8060050160009054906101000a900473ffffffffffffffffffffffffffffffffffffffff1673ffffffffffffffffffffffffffffffffffffffff166108fc82600301549081150290604051600060405180830381858888f19350505050158015610d81573d6000803e3d6000fd5b507f000000000000000000000000000000000000000000000000000000000000000073ffffffffffffffffffffffffffffffffffffffff166108fc826003015484610dcc9190611940565b9081150290604051600060405180830381858888f19350505050158015610df7573d6000803e3d6000fd5b5060018160050160146101000a81548160ff021916908315150217905550338160050160006101000a81548173ffffffffffffffffffffffffffffffffffffffff021916908373ffffffffffffffffffffffffffffffffffffffff1602179055508060010160009054906101000a900473ffffffffffffffffffffffffffffffffffffffff1673ffffffffffffffffffffffffffffffffffffffff166323b872dd303384600201546040518463ffffffff1660e01b8152600401610ebd93929190611610565b600060405180830381600087803b158015610ed757600080fd5b505af1158015610eeb573d6000803e3d6000fd5b505050503373ffffffffffffffffffffffffffffffffffffffff168160040160009054906101000a900473ffffffffffffffffffffffffffffffffffffffff1673ffffffffffffffffffffffffffffffffffffffff168260010160009054906101000a900473ffffffffffffffffffffffffffffffffffffffff1673ffffffffffffffffffffffffffffffffffffffff167f8b4c9c8a607d67b321582dd8461041b1dc2ceeca70c8b7f37f8e02095cf2e76d8685600201548660030154604051610fb793929190611817565b60405180910390a45050600160008190555050565b60026000541415611012576040517f08c379a000000000000000000000000000000000000000000000000000000000815260040161100990611727565b60405180910390fd5b60026000819055506000811161105d576040517f08c379a000000000000000000000000000000000000000000000000000000000815260040161105490611687565b60405180910390fd5b6001600081548092919061107090611a04565b91905055508273ffffffffffffffffffffffffffffffffffffffff166323b872dd3330856040518463ffffffff1660e01b81526004016110b293929190611610565b600060405180830381600087803b1580156110cc57600080fd5b505af11580156110e0573d6000803e3d6000fd5b5050505060405180610100016040528060015481526020018473ffffffffffffffffffffffffffffffffffffffff1681526020018381526020018281526020013373ffffffffffffffffffffffffffffffffffffffff1681526020013373ffffffffffffffffffffffffffffffffffffffff16815260200160001515815260200160008152506002600060015481526020019081526020016000206000820151816000015560208201518160010160006101000a81548173ffffffffffffffffffffffffffffffffffffffff021916908373ffffffffffffffffffffffffffffffffffffffff160217905550604082015181600201556060820151816003015560808201518160040160006101000a81548173ffffffffffffffffffffffffffffffffffffffff021916908373ffffffffffffffffffffffffffffffffffffffff16021790555060a08201518160050160006101000a81548173ffffffffffffffffffffffffffffffffffffffff021916908373ffffffffffffffffffffffffffffffffffffffff16021790555060c08201518160050160146101000a81548160ff02191690831515021790555060e082015181600601559050503373ffffffffffffffffffffffffffffffffffffffff168373ffffffffffffffffffffffffffffffffffffffff167f655a0cf9c8db81512be9a76dc1c5ae5380b8816ce6ad659cd61b715e2999d59a60015485856040516112fe93929190611817565b60405180910390a36001600081905550505050565b6113a98160405160240161132791906115da565b6040516020818303038152906040527f2c2ecbc2000000000000000000000000000000000000000000000000000000007bffffffffffffffffffffffffffffffffffffffffffffffffffffffff19166020820180517bffffffffffffffffffffffffffffffffffffffffffffffffffffffff83818316178352505050506113ac565b50565b60008151905060006a636f6e736f6c652e6c6f679050602083016000808483855afa5050505050565b6000813590506113e481611c3f565b92915050565b6000813590506113f981611c56565b92915050565b60008060006060848603121561141457600080fd5b6000611422868287016113d5565b9350506020611433868287016113ea565b9250506040611444868287016113ea565b9150509250925092565b60006020828403121561146057600080fd5b600061146e848285016113ea565b91505092915050565b61148081611986565b82525050565b61148f81611974565b82525050565b61149e81611998565b82525050565b6114ad816119e0565b82525050565b60006114c060118361184e565b91506114cb82611aab565b602082019050919050565b60006114e3600f8361184e565b91506114ee82611ad4565b602082019050919050565b6000611506601f8361184e565b915061151182611afd565b602082019050919050565b600061152960338361184e565b915061153482611b26565b604082019050919050565b600061154c60128361184e565b915061155782611b75565b602082019050919050565b600061156f60298361184e565b915061157a82611b9e565b604082019050919050565b600061159260188361184e565b915061159d82611bed565b602082019050919050565b60006115b5601f8361184e565b91506115c082611c16565b602082019050919050565b6115d4816119d6565b82525050565b60006020820190506115ef6000830184611486565b92915050565b600060208201905061160a6000830184611477565b92915050565b60006060820190506116256000830186611486565b6116326020830185611486565b61163f60408301846115cb565b949350505050565b60006020820190508181036000830152611660816114b3565b9050919050565b60006020820190508181036000830152611680816114d6565b9050919050565b600060208201905081810360008301526116a0816114f9565b9050919050565b600060208201905081810360008301526116c08161151c565b9050919050565b600060208201905081810360008301526116e08161153f565b9050919050565b6000602082019050818103600083015261170081611562565b9050919050565b6000602082019050818103600083015261172081611585565b9050919050565b60006020820190508181036000830152611740816115a8565b9050919050565b600060208201905061175c60008301846115cb565b92915050565b600061010082019050611778600083018b6115cb565b611785602083018a6114a4565b61179260408301896115cb565b61179f60608301886115cb565b6117ac6080830187611477565b6117b960a0830186611477565b6117c660c0830185611495565b6117d360e08301846115cb565b9998505050505050505050565b60006060820190506117f560008301866115cb565b61180260208301856115cb565b61180f6040830184611477565b949350505050565b600060608201905061182c60008301866115cb565b61183960208301856115cb565b61184660408301846115cb565b949350505050565b600082825260208201905092915050565b600061186a826119d6565b9150611875836119d6565b9250827fffffffffffffffffffffffffffffffffffffffffffffffffffffffffffffffff038211156118aa576118a9611a4d565b5b828201905092915050565b60006118c0826119d6565b91506118cb836119d6565b9250826118db576118da611a7c565b5b828204905092915050565b60006118f1826119d6565b91506118fc836119d6565b9250817fffffffffffffffffffffffffffffffffffffffffffffffffffffffffffffffff048311821515161561193557611934611a4d565b5b828202905092915050565b600061194b826119d6565b9150611956836119d6565b92508282101561196957611968611a4d565b5b828203905092915050565b600061197f826119b6565b9050919050565b6000611991826119b6565b9050919050565b60008115159050919050565b60006119af82611974565b9050919050565b600073ffffffffffffffffffffffffffffffffffffffff82169050919050565b6000819050919050565b60006119eb826119f2565b9050919050565b60006119fd826119b6565b9050919050565b6000611a0f826119d6565b91507fffffffffffffffffffffffffffffffffffffffffffffffffffffffffffffffff821415611a4257611a41611a4d565b5b600182019050919050565b7f4e487b7100000000000000000000000000000000000000000000000000000000600052601160045260246000fd5b7f4e487b7100000000000000000000000000000000000000000000000000000000600052601260045260246000fd5b7f6974656d20616c726561647920736f6c64000000000000000000000000000000600082015250565b7f496e76616c6964206974656d2069640000000000000000000000000000000000600082015250565b7f5072696365206d7573742062652067726561746572207468616e207a65726f00600082015250565b7f6e6f7420656e6f75676820657468657220746f20636f766572206974656d207060008201527f7269636520616e64206d61726b65742066656500000000000000000000000000602082015250565b7f6974656d20646f65736e27742065786973740000000000000000000000000000600082015250565b7f4f6e6c79206f776e65722063616e20706572666f726d2073656c6c2046756e6360008201527f74696f6e616c6974790000000000000000000000000000000000000000000000602082015250565b7f43616e6e6f742074697020796f7572206f776e20706f73740000000000000000600082015250565b7f5265656e7472616e637947756172643a207265656e7472616e742063616c6c00600082015250565b611c48816119a4565b8114611c5357600080fd5b50565b611c5f816119d6565b8114611c6a57600080fd5b5056fea26469706673582212206f74b35f49b56608cdea066f0f9f15bc18eebaf5cd8a6a13c8d60c8cca6b894564736f6c63430008040033",
  "linkReferences": {},
  "deployedLinkReferences": {}
}