{
  "_format": "hh-sol-artifact-1",
  "contractName": "Marketplace",
  "sourceName": "src/backend/contracts/Marketplace.sol",
  "abi": [
    {
      "inputs": [
        {
          "internalType": "uint256",
          "name": "_feePercent",
          "type": "uint256"
        },
        {
          "internalType": "uint256",
          "name": "_resellPercent",
          "type": "uint256"
        }
      ],
      "stateMutability": "nonpayable",
      "type": "constructor"
    },
    {
      "anonymous": false,
      "inputs": [
        {
          "indexed": false,
          "internalType": "uint256",
          "name": "itemId",
          "type": "uint256"
        },
        {
          "indexed": true,
          "internalType": "address",
          "name": "nft",
          "type": "address"
        },
        {
          "indexed": false,
          "internalType": "uint256",
          "name": "tokenId",
          "type": "uint256"
        },
        {
          "indexed": false,
          "internalType": "uint256",
          "name": "price",
          "type": "uint256"
        },
        {
          "indexed": true,
          "internalType": "address",
          "name": "seller",
          "type": "address"
        },
        {
          "indexed": true,
          "internalType": "address",
          "name": "buyer",
          "type": "address"
        }
      ],
      "name": "Bought",
      "type": "event"
    },
    {
      "anonymous": false,
      "inputs": [
        {
          "indexed": false,
          "internalType": "uint256",
          "name": "id",
          "type": "uint256"
        },
        {
          "indexed": false,
          "internalType": "uint256",
          "name": "tipAmount",
          "type": "uint256"
        },
        {
          "indexed": false,
          "internalType": "address payable",
          "name": "owner",
          "type": "address"
        }
      ],
      "name": "NFTTipped",
      "type": "event"
    },
    {
      "anonymous": false,
      "inputs": [
        {
          "indexed": false,
          "internalType": "uint256",
          "name": "itemId",
          "type": "uint256"
        },
        {
          "indexed": true,
          "internalType": "address",
          "name": "nft",
          "type": "address"
        },
        {
          "indexed": false,
          "internalType": "uint256",
          "name": "tokenId",
          "type": "uint256"
        },
        {
          "indexed": false,
          "internalType": "uint256",
          "name": "price",
          "type": "uint256"
        },
        {
          "indexed": true,
          "internalType": "address",
          "name": "seller",
          "type": "address"
        }
      ],
      "name": "Offered",
      "type": "event"
    },
    {
      "inputs": [],
      "name": "feeAccount",
      "outputs": [
        {
          "internalType": "address payable",
          "name": "",
          "type": "address"
        }
      ],
      "stateMutability": "view",
      "type": "function"
    },
    {
      "inputs": [],
      "name": "feePercent",
      "outputs": [
        {
          "internalType": "uint256",
          "name": "",
          "type": "uint256"
        }
      ],
      "stateMutability": "view",
      "type": "function"
    },
    {
      "inputs": [
        {
          "internalType": "uint256",
          "name": "_itemId",
          "type": "uint256"
        }
      ],
      "name": "getResellPrice",
      "outputs": [
        {
          "internalType": "uint256",
          "name": "",
          "type": "uint256"
        }
      ],
      "stateMutability": "view",
      "type": "function"
    },
    {
      "inputs": [
        {
          "internalType": "uint256",
          "name": "_itemId",
          "type": "uint256"
        }
      ],
      "name": "getTotalPrice",
      "outputs": [
        {
          "internalType": "uint256",
          "name": "",
          "type": "uint256"
        }
      ],
      "stateMutability": "view",
      "type": "function"
    },
    {
      "inputs": [],
      "name": "itemCount",
      "outputs": [
        {
          "internalType": "uint256",
          "name": "",
          "type": "uint256"
        }
      ],
      "stateMutability": "view",
      "type": "function"
    },
    {
      "inputs": [
        {
          "internalType": "uint256",
          "name": "",
          "type": "uint256"
        }
      ],
      "name": "items",
      "outputs": [
        {
          "internalType": "uint256",
          "name": "itemId",
          "type": "uint256"
        },
        {
          "internalType": "contract IERC721",
          "name": "nft",
          "type": "address"
        },
        {
          "internalType": "uint256",
          "name": "tokenId",
          "type": "uint256"
        },
        {
          "internalType": "uint256",
          "name": "price",
          "type": "uint256"
        },
        {
          "internalType": "address payable",
          "name": "initial_seller",
          "type": "address"
        },
        {
          "internalType": "address payable",
          "name": "seller",
          "type": "address"
        },
        {
          "internalType": "address payable",
          "name": "owner",
          "type": "address"
        },
        {
          "internalType": "bool",
          "name": "sold",
          "type": "bool"
        },
        {
          "internalType": "bool",
          "name": "resell",
          "type": "bool"
        },
        {
          "internalType": "uint256",
          "name": "tipAmount",
          "type": "uint256"
        }
      ],
      "stateMutability": "view",
      "type": "function"
    },
    {
      "inputs": [
        {
          "internalType": "contract IERC721",
          "name": "_nft",
          "type": "address"
        },
        {
          "internalType": "uint256",
          "name": "_tokenId",
          "type": "uint256"
        },
        {
          "internalType": "uint256",
          "name": "_price",
          "type": "uint256"
        }
      ],
      "name": "makeItem",
      "outputs": [],
      "stateMutability": "nonpayable",
      "type": "function"
    },
    {
      "inputs": [
        {
          "internalType": "uint256",
          "name": "_itemId",
          "type": "uint256"
        }
      ],
      "name": "purchaseItem",
      "outputs": [],
      "stateMutability": "payable",
      "type": "function"
    },
    {
      "inputs": [],
      "name": "resellPercent",
      "outputs": [
        {
          "internalType": "uint256",
          "name": "",
          "type": "uint256"
        }
      ],
      "stateMutability": "view",
      "type": "function"
    },
    {
      "inputs": [
        {
          "internalType": "uint256",
          "name": "_itemId",
          "type": "uint256"
        }
      ],
      "name": "sellItem",
      "outputs": [],
      "stateMutability": "payable",
      "type": "function"
    },
    {
      "inputs": [
        {
          "internalType": "uint256",
          "name": "_id",
          "type": "uint256"
        }
      ],
      "name": "tipOwner",
      "outputs": [],
      "stateMutability": "payable",
      "type": "function"
    }
  ],
  "bytecode": "0x60e06040523480156200001157600080fd5b5060405162001fd538038062001fd58339818101604052810190620000379190620000a5565b60016000819055503373ffffffffffffffffffffffffffffffffffffffff1660808173ffffffffffffffffffffffffffffffffffffffff1660601b815250508160a081815250508060c0818152505050506200010a565b6000815190506200009f81620000f0565b92915050565b60008060408385031215620000b957600080fd5b6000620000c9858286016200008e565b9250506020620000dc858286016200008e565b9150509250929050565b6000819050919050565b620000fb81620000e6565b81146200010757600080fd5b50565b60805160601c60a05160c051611e83620001526000396000818161029001526107d60152600081816108240152610c920152600081816107fa0152610eb80152611e836000f3fe60806040526004361061009c5760003560e01c80637fd6f15c116100645780637fd6f15c1461017b57806391b6be9a146101a6578063bfb231d2146101c2578063ca7dd37514610208578063d38ea5bf14610245578063fa00afc7146102615761009c565b806346ae5cc3146100a15780635611b8c8146100de5780636037ca64146100fa57806365e17c9d146101255780636bfb0d0114610150575b600080fd5b3480156100ad57600080fd5b506100c860048036038101906100c39190611610565b61028a565b6040516100d59190611909565b60405180910390f35b6100f860048036038101906100f39190611610565b6102ed565b005b34801561010657600080fd5b5061010f6107d4565b60405161011c9190611909565b60405180910390f35b34801561013157600080fd5b5061013a6107f8565b60405161014791906117b7565b60405180910390f35b34801561015c57600080fd5b5061016561081c565b6040516101729190611909565b60405180910390f35b34801561018757600080fd5b50610190610822565b60405161019d9190611909565b60405180910390f35b6101c060048036038101906101bb9190611610565b610846565b005b3480156101ce57600080fd5b506101e960048036038101906101e49190611610565b610b9e565b6040516101ff9a99989796959493929190611924565b60405180910390f35b34801561021457600080fd5b5061022f600480360381019061022a9190611610565b610c8c565b60405161023c9190611909565b60405180910390f35b61025f600480360381019061025a9190611610565b610cef565b005b34801561026d57600080fd5b50610288600480360381019061028391906115c1565b611100565b005b600060647f000000000000000000000000000000000000000000000000000000000000000060646102bb9190611a3f565b60026000858152602001908152602001600020600301546102dc9190611ac6565b6102e69190611a95565b9050919050565b6000811180156102ff57506001548111155b61033e576040517f08c379a000000000000000000000000000000000000000000000000000000000815260040161033590611829565b60405180910390fd5b60006002600083815260200190815260200160002060405180610140016040529081600082015481526020016001820160009054906101000a900473ffffffffffffffffffffffffffffffffffffffff1673ffffffffffffffffffffffffffffffffffffffff1673ffffffffffffffffffffffffffffffffffffffff16815260200160028201548152602001600382015481526020016004820160009054906101000a900473ffffffffffffffffffffffffffffffffffffffff1673ffffffffffffffffffffffffffffffffffffffff1673ffffffffffffffffffffffffffffffffffffffff1681526020016005820160009054906101000a900473ffffffffffffffffffffffffffffffffffffffff1673ffffffffffffffffffffffffffffffffffffffff1673ffffffffffffffffffffffffffffffffffffffff1681526020016006820160009054906101000a900473ffffffffffffffffffffffffffffffffffffffff1673ffffffffffffffffffffffffffffffffffffffff1673ffffffffffffffffffffffffffffffffffffffff1681526020016006820160149054906101000a900460ff161515151581526020016006820160159054906101000a900460ff1615151515815260200160078201548152505090503373ffffffffffffffffffffffffffffffffffffffff168160a0015173ffffffffffffffffffffffffffffffffffffffff16141561058a576040517f08c379a0000000000000000000000000000000000000000000000000000000008152600401610581906118c9565b60405180910390fd5b8060a0015173ffffffffffffffffffffffffffffffffffffffff166108fc349081150290604051600060405180830381858888f193505050501580156105d4573d6000803e3d6000fd5b503481610120018181516105e89190611a3f565b9150818152505080600260008481526020019081526020016000206000820151816000015560208201518160010160006101000a81548173ffffffffffffffffffffffffffffffffffffffff021916908373ffffffffffffffffffffffffffffffffffffffff160217905550604082015181600201556060820151816003015560808201518160040160006101000a81548173ffffffffffffffffffffffffffffffffffffffff021916908373ffffffffffffffffffffffffffffffffffffffff16021790555060a08201518160050160006101000a81548173ffffffffffffffffffffffffffffffffffffffff021916908373ffffffffffffffffffffffffffffffffffffffff16021790555060c08201518160060160006101000a81548173ffffffffffffffffffffffffffffffffffffffff021916908373ffffffffffffffffffffffffffffffffffffffff16021790555060e08201518160060160146101000a81548160ff0219169083151502179055506101008201518160060160156101000a81548160ff02191690831515021790555061012082015181600701559050507faecf5b876d33d32fc589c904cf29d60963cba0189f459c2e3b30b6cf12ed72d5828261012001518360a001516040516107c8939291906119c0565b60405180910390a15050565b7f000000000000000000000000000000000000000000000000000000000000000081565b7f000000000000000000000000000000000000000000000000000000000000000081565b60015481565b7f000000000000000000000000000000000000000000000000000000000000000081565b6002600054141561088c576040517f08c379a0000000000000000000000000000000000000000000000000000000008152600401610883906118e9565b60405180910390fd5b6002600081905550600061089f8261028a565b905060006002600084815260200190815260200160002090506000831180156108ca57506001548311155b610909576040517f08c379a000000000000000000000000000000000000000000000000000000000815260040161090090611889565b60405180910390fd5b3373ffffffffffffffffffffffffffffffffffffffff168160060160009054906101000a900473ffffffffffffffffffffffffffffffffffffffff1673ffffffffffffffffffffffffffffffffffffffff161461099b576040517f08c379a0000000000000000000000000000000000000000000000000000000008152600401610992906118a9565b60405180910390fd5b8060010160009054906101000a900473ffffffffffffffffffffffffffffffffffffffff1673ffffffffffffffffffffffffffffffffffffffff166323b872dd333084600201546040518463ffffffff1660e01b8152600401610a00939291906117d2565b600060405180830381600087803b158015610a1a57600080fd5b505af1158015610a2e573d6000803e3d6000fd5b5050505060008160060160146101000a81548160ff02191690831515021790555060018160060160156101000a81548160ff021916908315150217905550818160030181905550338160050160006101000a81548173ffffffffffffffffffffffffffffffffffffffff021916908373ffffffffffffffffffffffffffffffffffffffff160217905550610ac1306114d5565b3073ffffffffffffffffffffffffffffffffffffffff168160050160009054906101000a900473ffffffffffffffffffffffffffffffffffffffff1673ffffffffffffffffffffffffffffffffffffffff168260010160009054906101000a900473ffffffffffffffffffffffffffffffffffffffff1673ffffffffffffffffffffffffffffffffffffffff167f8b4c9c8a607d67b321582dd8461041b1dc2ceeca70c8b7f37f8e02095cf2e76d8685600201548660030154604051610b89939291906119f7565b60405180910390a45050600160008190555050565b60026020528060005260406000206000915090508060000154908060010160009054906101000a900473ffffffffffffffffffffffffffffffffffffffff16908060020154908060030154908060040160009054906101000a900473ffffffffffffffffffffffffffffffffffffffff16908060050160009054906101000a900473ffffffffffffffffffffffffffffffffffffffff16908060060160009054906101000a900473ffffffffffffffffffffffffffffffffffffffff16908060060160149054906101000a900460ff16908060060160159054906101000a900460ff1690806007015490508a565b600060647f00000000000000000000000000000000000000000000000000000000000000006064610cbd9190611a3f565b6002600085815260200190815260200160002060030154610cde9190611ac6565b610ce89190611a95565b9050919050565b60026000541415610d35576040517f08c379a0000000000000000000000000000000000000000000000000000000008152600401610d2c906118e9565b60405180910390fd5b60026000819055506000610d4882610c8c565b90506000600260008481526020019081526020016000209050600083118015610d7357506001548311155b610db2576040517f08c379a0000000000000000000000000000000000000000000000000000000008152600401610da990611889565b60405180910390fd5b81341015610df5576040517f08c379a0000000000000000000000000000000000000000000000000000000008152600401610dec90611869565b60405180910390fd5b8060060160149054906101000a900460ff1615610e47576040517f08c379a0000000000000000000000000000000000000000000000000000000008152600401610e3e90611809565b60405180910390fd5b8060060160009054906101000a900473ffffffffffffffffffffffffffffffffffffffff1673ffffffffffffffffffffffffffffffffffffffff166108fc82600301549081150290604051600060405180830381858888f19350505050158015610eb5573d6000803e3d6000fd5b507f000000000000000000000000000000000000000000000000000000000000000073ffffffffffffffffffffffffffffffffffffffff166108fc826003015484610f009190611b20565b9081150290604051600060405180830381858888f19350505050158015610f2b573d6000803e3d6000fd5b5060018160060160146101000a81548160ff021916908315150217905550338160060160006101000a81548173ffffffffffffffffffffffffffffffffffffffff021916908373ffffffffffffffffffffffffffffffffffffffff1602179055508060010160009054906101000a900473ffffffffffffffffffffffffffffffffffffffff1673ffffffffffffffffffffffffffffffffffffffff166323b872dd303384600201546040518463ffffffff1660e01b8152600401610ff1939291906117d2565b600060405180830381600087803b15801561100b57600080fd5b505af115801561101f573d6000803e3d6000fd5b505050503373ffffffffffffffffffffffffffffffffffffffff168160050160009054906101000a900473ffffffffffffffffffffffffffffffffffffffff1673ffffffffffffffffffffffffffffffffffffffff168260010160009054906101000a900473ffffffffffffffffffffffffffffffffffffffff1673ffffffffffffffffffffffffffffffffffffffff167f8b4c9c8a607d67b321582dd8461041b1dc2ceeca70c8b7f37f8e02095cf2e76d86856002015486600301546040516110eb939291906119f7565b60405180910390a45050600160008190555050565b60026000541415611146576040517f08c379a000000000000000000000000000000000000000000000000000000000815260040161113d906118e9565b60405180910390fd5b600260008190555060008111611191576040517f08c379a000000000000000000000000000000000000000000000000000000000815260040161118890611849565b60405180910390fd5b600160008154809291906111a490611be4565b91905055508273ffffffffffffffffffffffffffffffffffffffff166323b872dd3330856040518463ffffffff1660e01b81526004016111e6939291906117d2565b600060405180830381600087803b15801561120057600080fd5b505af1158015611214573d6000803e3d6000fd5b5050505060405180610140016040528060015481526020018473ffffffffffffffffffffffffffffffffffffffff1681526020018381526020018281526020013373ffffffffffffffffffffffffffffffffffffffff1681526020013373ffffffffffffffffffffffffffffffffffffffff1681526020013373ffffffffffffffffffffffffffffffffffffffff16815260200160001515815260200160001515815260200160008152506002600060015481526020019081526020016000206000820151816000015560208201518160010160006101000a81548173ffffffffffffffffffffffffffffffffffffffff021916908373ffffffffffffffffffffffffffffffffffffffff160217905550604082015181600201556060820151816003015560808201518160040160006101000a81548173ffffffffffffffffffffffffffffffffffffffff021916908373ffffffffffffffffffffffffffffffffffffffff16021790555060a08201518160050160006101000a81548173ffffffffffffffffffffffffffffffffffffffff021916908373ffffffffffffffffffffffffffffffffffffffff16021790555060c08201518160060160006101000a81548173ffffffffffffffffffffffffffffffffffffffff021916908373ffffffffffffffffffffffffffffffffffffffff16021790555060e08201518160060160146101000a81548160ff0219169083151502179055506101008201518160060160156101000a81548160ff02191690831515021790555061012082015181600701559050503373ffffffffffffffffffffffffffffffffffffffff168373ffffffffffffffffffffffffffffffffffffffff167f655a0cf9c8db81512be9a76dc1c5ae5380b8816ce6ad659cd61b715e2999d59a60015485856040516114c0939291906119f7565b60405180910390a36001600081905550505050565b61156b816040516024016114e9919061179c565b6040516020818303038152906040527f2c2ecbc2000000000000000000000000000000000000000000000000000000007bffffffffffffffffffffffffffffffffffffffffffffffffffffffff19166020820180517bffffffffffffffffffffffffffffffffffffffffffffffffffffffff838183161783525050505061156e565b50565b60008151905060006a636f6e736f6c652e6c6f679050602083016000808483855afa5050505050565b6000813590506115a681611e1f565b92915050565b6000813590506115bb81611e36565b92915050565b6000806000606084860312156115d657600080fd5b60006115e486828701611597565b93505060206115f5868287016115ac565b9250506040611606868287016115ac565b9150509250925092565b60006020828403121561162257600080fd5b6000611630848285016115ac565b91505092915050565b61164281611b66565b82525050565b61165181611b54565b82525050565b61166081611b78565b82525050565b61166f81611bc0565b82525050565b6000611682601183611a2e565b915061168d82611c8b565b602082019050919050565b60006116a5600f83611a2e565b91506116b082611cb4565b602082019050919050565b60006116c8601f83611a2e565b91506116d382611cdd565b602082019050919050565b60006116eb603383611a2e565b91506116f682611d06565b604082019050919050565b600061170e601283611a2e565b915061171982611d55565b602082019050919050565b6000611731602983611a2e565b915061173c82611d7e565b604082019050919050565b6000611754601883611a2e565b915061175f82611dcd565b602082019050919050565b6000611777601f83611a2e565b915061178282611df6565b602082019050919050565b61179681611bb6565b82525050565b60006020820190506117b16000830184611648565b92915050565b60006020820190506117cc6000830184611639565b92915050565b60006060820190506117e76000830186611648565b6117f46020830185611648565b611801604083018461178d565b949350505050565b6000602082019050818103600083015261182281611675565b9050919050565b6000602082019050818103600083015261184281611698565b9050919050565b60006020820190508181036000830152611862816116bb565b9050919050565b60006020820190508181036000830152611882816116de565b9050919050565b600060208201905081810360008301526118a281611701565b9050919050565b600060208201905081810360008301526118c281611724565b9050919050565b600060208201905081810360008301526118e281611747565b9050919050565b600060208201905081810360008301526119028161176a565b9050919050565b600060208201905061191e600083018461178d565b92915050565b60006101408201905061193a600083018d61178d565b611947602083018c611666565b611954604083018b61178d565b611961606083018a61178d565b61196e6080830189611639565b61197b60a0830188611639565b61198860c0830187611639565b61199560e0830186611657565b6119a3610100830185611657565b6119b161012083018461178d565b9b9a5050505050505050505050565b60006060820190506119d5600083018661178d565b6119e2602083018561178d565b6119ef6040830184611639565b949350505050565b6000606082019050611a0c600083018661178d565b611a19602083018561178d565b611a26604083018461178d565b949350505050565b600082825260208201905092915050565b6000611a4a82611bb6565b9150611a5583611bb6565b9250827fffffffffffffffffffffffffffffffffffffffffffffffffffffffffffffffff03821115611a8a57611a89611c2d565b5b828201905092915050565b6000611aa082611bb6565b9150611aab83611bb6565b925082611abb57611aba611c5c565b5b828204905092915050565b6000611ad182611bb6565b9150611adc83611bb6565b9250817fffffffffffffffffffffffffffffffffffffffffffffffffffffffffffffffff0483118215151615611b1557611b14611c2d565b5b828202905092915050565b6000611b2b82611bb6565b9150611b3683611bb6565b925082821015611b4957611b48611c2d565b5b828203905092915050565b6000611b5f82611b96565b9050919050565b6000611b7182611b96565b9050919050565b60008115159050919050565b6000611b8f82611b54565b9050919050565b600073ffffffffffffffffffffffffffffffffffffffff82169050919050565b6000819050919050565b6000611bcb82611bd2565b9050919050565b6000611bdd82611b96565b9050919050565b6000611bef82611bb6565b91507fffffffffffffffffffffffffffffffffffffffffffffffffffffffffffffffff821415611c2257611c21611c2d565b5b600182019050919050565b7f4e487b7100000000000000000000000000000000000000000000000000000000600052601160045260246000fd5b7f4e487b7100000000000000000000000000000000000000000000000000000000600052601260045260246000fd5b7f6974656d20616c726561647920736f6c64000000000000000000000000000000600082015250565b7f496e76616c6964206974656d2069640000000000000000000000000000000000600082015250565b7f5072696365206d7573742062652067726561746572207468616e207a65726f00600082015250565b7f6e6f7420656e6f75676820657468657220746f20636f766572206974656d207060008201527f7269636520616e64206d61726b65742066656500000000000000000000000000602082015250565b7f6974656d20646f65736e27742065786973740000000000000000000000000000600082015250565b7f4f6e6c79206f776e65722063616e20706572666f726d2073656c6c2046756e6360008201527f74696f6e616c6974790000000000000000000000000000000000000000000000602082015250565b7f43616e6e6f742074697020796f7572206f776e20706f73740000000000000000600082015250565b7f5265656e7472616e637947756172643a207265656e7472616e742063616c6c00600082015250565b611e2881611b84565b8114611e3357600080fd5b50565b611e3f81611bb6565b8114611e4a57600080fd5b5056fea26469706673582212202a915e5af96f7e592cf05bd5590ffa1a75cbff212247555be674ab274cf2d78164736f6c63430008040033",
  "linkReferences": {},
  "deployedLinkReferences": {}
}