{
  "_format": "hh-sol-artifact-1",
  "contractName": "NFT",
  "sourceName": "src/backend/contracts/NFT.sol",
  "abi": [
    {
      "inputs": [],
      "stateMutability": "nonpayable",
      "type": "constructor"
    },
    {
      "anonymous": false,
      "inputs": [
        {
          "indexed": true,
          "internalType": "address",
          "name": "owner",
          "type": "address"
        },
        {
          "indexed": true,
          "internalType": "address",
          "name": "approved",
          "type": "address"
        },
        {
          "indexed": true,
          "internalType": "uint256",
          "name": "tokenId",
          "type": "uint256"
        }
      ],
      "name": "Approval",
      "type": "event"
    },
    {
      "anonymous": false,
      "inputs": [
        {
          "indexed": true,
          "internalType": "address",
          "name": "owner",
          "type": "address"
        },
        {
          "indexed": true,
          "internalType": "address",
          "name": "operator",
          "type": "address"
        },
        {
          "indexed": false,
          "internalType": "bool",
          "name": "approved",
          "type": "bool"
        }
      ],
      "name": "ApprovalForAll",
      "type": "event"
    },
    {
      "anonymous": false,
      "inputs": [
        {
          "indexed": true,
          "internalType": "address",
          "name": "from",
          "type": "address"
        },
        {
          "indexed": true,
          "internalType": "address",
          "name": "to",
          "type": "address"
        },
        {
          "indexed": true,
          "internalType": "uint256",
          "name": "tokenId",
          "type": "uint256"
        }
      ],
      "name": "Transfer",
      "type": "event"
    },
    {
      "inputs": [
        {
          "internalType": "address",
          "name": "to",
          "type": "address"
        },
        {
          "internalType": "uint256",
          "name": "tokenId",
          "type": "uint256"
        }
      ],
      "name": "approve",
      "outputs": [],
      "stateMutability": "nonpayable",
      "type": "function"
    },
    {
      "inputs": [
        {
          "internalType": "address",
          "name": "owner",
          "type": "address"
        }
      ],
      "name": "balanceOf",
      "outputs": [
        {
          "internalType": "uint256",
          "name": "",
          "type": "uint256"
        }
      ],
      "stateMutability": "view",
      "type": "function"
    },
    {
      "inputs": [
        {
          "internalType": "uint256",
          "name": "tokenId",
          "type": "uint256"
        }
      ],
      "name": "getApproved",
      "outputs": [
        {
          "internalType": "address",
          "name": "",
          "type": "address"
        }
      ],
      "stateMutability": "view",
      "type": "function"
    },
    {
      "inputs": [],
      "name": "getMyNfts",
      "outputs": [
        {
          "internalType": "uint256[]",
          "name": "_ids",
          "type": "uint256[]"
        }
      ],
      "stateMutability": "view",
      "type": "function"
    },
    {
      "inputs": [
        {
          "internalType": "address",
          "name": "owner",
          "type": "address"
        },
        {
          "internalType": "address",
          "name": "operator",
          "type": "address"
        }
      ],
      "name": "isApprovedForAll",
      "outputs": [
        {
          "internalType": "bool",
          "name": "",
          "type": "bool"
        }
      ],
      "stateMutability": "view",
      "type": "function"
    },
    {
      "inputs": [
        {
          "internalType": "string",
          "name": "_tokenURI",
          "type": "string"
        }
      ],
      "name": "mint",
      "outputs": [
        {
          "internalType": "uint256",
          "name": "",
          "type": "uint256"
        }
      ],
      "stateMutability": "nonpayable",
      "type": "function"
    },
    {
      "inputs": [],
      "name": "name",
      "outputs": [
        {
          "internalType": "string",
          "name": "",
          "type": "string"
        }
      ],
      "stateMutability": "view",
      "type": "function"
    },
    {
      "inputs": [
        {
          "internalType": "uint256",
          "name": "tokenId",
          "type": "uint256"
        }
      ],
      "name": "ownerOf",
      "outputs": [
        {
          "internalType": "address",
          "name": "",
          "type": "address"
        }
      ],
      "stateMutability": "view",
      "type": "function"
    },
    {
      "inputs": [
        {
          "internalType": "address",
          "name": "",
          "type": "address"
        }
      ],
      "name": "profiles",
      "outputs": [
        {
          "internalType": "uint256",
          "name": "",
          "type": "uint256"
        }
      ],
      "stateMutability": "view",
      "type": "function"
    },
    {
      "inputs": [
        {
          "internalType": "address",
          "name": "from",
          "type": "address"
        },
        {
          "internalType": "address",
          "name": "to",
          "type": "address"
        },
        {
          "internalType": "uint256",
          "name": "tokenId",
          "type": "uint256"
        }
      ],
      "name": "safeTransferFrom",
      "outputs": [],
      "stateMutability": "nonpayable",
      "type": "function"
    },
    {
      "inputs": [
        {
          "internalType": "address",
          "name": "from",
          "type": "address"
        },
        {
          "internalType": "address",
          "name": "to",
          "type": "address"
        },
        {
          "internalType": "uint256",
          "name": "tokenId",
          "type": "uint256"
        },
        {
          "internalType": "bytes",
          "name": "_data",
          "type": "bytes"
        }
      ],
      "name": "safeTransferFrom",
      "outputs": [],
      "stateMutability": "nonpayable",
      "type": "function"
    },
    {
      "inputs": [
        {
          "internalType": "address",
          "name": "operator",
          "type": "address"
        },
        {
          "internalType": "bool",
          "name": "approved",
          "type": "bool"
        }
      ],
      "name": "setApprovalForAll",
      "outputs": [],
      "stateMutability": "nonpayable",
      "type": "function"
    },
    {
      "inputs": [
        {
          "internalType": "uint256",
          "name": "_id",
          "type": "uint256"
        }
      ],
      "name": "setProfile",
      "outputs": [],
      "stateMutability": "nonpayable",
      "type": "function"
    },
    {
      "inputs": [
        {
          "internalType": "bytes4",
          "name": "interfaceId",
          "type": "bytes4"
        }
      ],
      "name": "supportsInterface",
      "outputs": [
        {
          "internalType": "bool",
          "name": "",
          "type": "bool"
        }
      ],
      "stateMutability": "view",
      "type": "function"
    },
    {
      "inputs": [],
      "name": "symbol",
      "outputs": [
        {
          "internalType": "string",
          "name": "",
          "type": "string"
        }
      ],
      "stateMutability": "view",
      "type": "function"
    },
    {
      "inputs": [],
      "name": "tokenCount",
      "outputs": [
        {
          "internalType": "uint256",
          "name": "",
          "type": "uint256"
        }
      ],
      "stateMutability": "view",
      "type": "function"
    },
    {
      "inputs": [
        {
          "internalType": "uint256",
          "name": "tokenId",
          "type": "uint256"
        }
      ],
      "name": "tokenURI",
      "outputs": [
        {
          "internalType": "string",
          "name": "",
          "type": "string"
        }
      ],
      "stateMutability": "view",
      "type": "function"
    },
    {
      "inputs": [
        {
          "internalType": "address",
          "name": "from",
          "type": "address"
        },
        {
          "internalType": "address",
          "name": "to",
          "type": "address"
        },
        {
          "internalType": "uint256",
          "name": "tokenId",
          "type": "uint256"
        }
      ],
      "name": "transferFrom",
      "outputs": [],
      "stateMutability": "nonpayable",
      "type": "function"
    }
  ],
  "bytecode": "0x60806040523480156200001157600080fd5b506040518060400160405280600881526020017f44417070204e46540000000000000000000000000000000000000000000000008152506040518060400160405280600481526020017f4441505000000000000000000000000000000000000000000000000000000000815250816000908051906020019062000096929190620000b8565b508060019080519060200190620000af929190620000b8565b505050620001cd565b828054620000c69062000168565b90600052602060002090601f016020900481019282620000ea576000855562000136565b82601f106200010557805160ff191683800117855562000136565b8280016001018555821562000136579182015b828111156200013557825182559160200191906001019062000118565b5b50905062000145919062000149565b5090565b5b80821115620001645760008160009055506001016200014a565b5090565b600060028204905060018216806200018157607f821691505b602082108114156200019857620001976200019e565b5b50919050565b7f4e487b7100000000000000000000000000000000000000000000000000000000600052602260045260246000fd5b61303180620001dd6000396000f3fe608060405234801561001057600080fd5b50600436106101165760003560e01c806385d3cb37116100a2578063b88d4fde11610071578063b88d4fde146102df578063bbe15627146102fb578063c87b56dd1461032b578063d85d3d271461035b578063e985e9c51461038b57610116565b806385d3cb371461026b57806395d89b41146102875780639f181b5e146102a5578063a22cb465146102c357610116565b8063095ea7b3116100e9578063095ea7b3146101b757806323b872dd146101d357806342842e0e146101ef5780636352211e1461020b57806370a082311461023b57610116565b806301ffc9a71461011b578063047b07bf1461014b57806306fdde0314610169578063081812fc14610187575b600080fd5b61013560048036038101906101309190611f2b565b6103bb565b604051610142919061243c565b60405180910390f35b61015361049d565b604051610160919061241a565b60405180910390f35b6101716105ed565b60405161017e9190612457565b60405180910390f35b6101a1600480360381019061019c9190611fbe565b61067f565b6040516101ae91906123b3565b60405180910390f35b6101d160048036038101906101cc9190611eef565b610704565b005b6101ed60048036038101906101e89190611de9565b61081c565b005b61020960048036038101906102049190611de9565b61087c565b005b61022560048036038101906102209190611fbe565b61089c565b60405161023291906123b3565b60405180910390f35b61025560048036038101906102509190611d84565b61094e565b6040516102629190612699565b60405180910390f35b61028560048036038101906102809190611fbe565b610a06565b005b61028f610ac3565b60405161029c9190612457565b60405180910390f35b6102ad610b55565b6040516102ba9190612699565b60405180910390f35b6102dd60048036038101906102d89190611eb3565b610b5b565b005b6102f960048036038101906102f49190611e38565b610b71565b005b61031560048036038101906103109190611d84565b610bd3565b6040516103229190612699565b60405180910390f35b61034560048036038101906103409190611fbe565b610beb565b6040516103529190612457565b60405180910390f35b61037560048036038101906103709190611f7d565b610d3d565b6040516103829190612699565b60405180910390f35b6103a560048036038101906103a09190611dad565b610d79565b6040516103b2919061243c565b60405180910390f35b60007f80ac58cd000000000000000000000000000000000000000000000000000000007bffffffffffffffffffffffffffffffffffffffffffffffffffffffff1916827bffffffffffffffffffffffffffffffffffffffffffffffffffffffff1916148061048657507f5b5e139f000000000000000000000000000000000000000000000000000000007bffffffffffffffffffffffffffffffffffffffffffffffffffffffff1916827bffffffffffffffffffffffffffffffffffffffffffffffffffffffff1916145b80610496575061049582610e0d565b5b9050919050565b60606104a83361094e565b67ffffffffffffffff8111156104e7577f4e487b7100000000000000000000000000000000000000000000000000000000600052604160045260246000fd5b6040519080825280602002602001820160405280156105155781602001602082028036833780820191505090505b509050600080600754905060005b818110156105e7573373ffffffffffffffffffffffffffffffffffffffff1661055760018361055291906127b7565b61089c565b73ffffffffffffffffffffffffffffffffffffffff1614156105d45760018161058091906127b7565b8484815181106105b9577f4e487b7100000000000000000000000000000000000000000000000000000000600052603260045260246000fd5b60200260200101818152505082806105d09061298b565b9350505b80806105df9061298b565b915050610523565b50505090565b6060600080546105fc90612928565b80601f016020809104026020016040519081016040528092919081815260200182805461062890612928565b80156106755780601f1061064a57610100808354040283529160200191610675565b820191906000526020600020905b81548152906001019060200180831161065857829003601f168201915b5050505050905090565b600061068a82610e77565b6106c9576040517f08c379a00000000000000000000000000000000000000000000000000000000081526004016106c0906125f9565b60405180910390fd5b6004600083815260200190815260200160002060009054906101000a900473ffffffffffffffffffffffffffffffffffffffff169050919050565b600061070f8261089c565b90508073ffffffffffffffffffffffffffffffffffffffff168373ffffffffffffffffffffffffffffffffffffffff161415610780576040517f08c379a000000000000000000000000000000000000000000000000000000000815260040161077790612639565b60405180910390fd5b8073ffffffffffffffffffffffffffffffffffffffff1661079f610ee3565b73ffffffffffffffffffffffffffffffffffffffff1614806107ce57506107cd816107c8610ee3565b610d79565b5b61080d576040517f08c379a000000000000000000000000000000000000000000000000000000000815260040161080490612539565b60405180910390fd5b6108178383610eeb565b505050565b61082d610827610ee3565b82610fa4565b61086c576040517f08c379a000000000000000000000000000000000000000000000000000000000815260040161086390612679565b60405180910390fd5b610877838383611082565b505050565b61089783838360405180602001604052806000815250610b71565b505050565b6000806002600084815260200190815260200160002060009054906101000a900473ffffffffffffffffffffffffffffffffffffffff169050600073ffffffffffffffffffffffffffffffffffffffff168173ffffffffffffffffffffffffffffffffffffffff161415610945576040517f08c379a000000000000000000000000000000000000000000000000000000000815260040161093c90612579565b60405180910390fd5b80915050919050565b60008073ffffffffffffffffffffffffffffffffffffffff168273ffffffffffffffffffffffffffffffffffffffff1614156109bf576040517f08c379a00000000000000000000000000000000000000000000000000000000081526004016109b690612559565b60405180910390fd5b600360008373ffffffffffffffffffffffffffffffffffffffff1673ffffffffffffffffffffffffffffffffffffffff168152602001908152602001600020549050919050565b3373ffffffffffffffffffffffffffffffffffffffff16610a268261089c565b73ffffffffffffffffffffffffffffffffffffffff1614610a7c576040517f08c379a0000000000000000000000000000000000000000000000000000000008152600401610a7390612659565b60405180910390fd5b80600860003373ffffffffffffffffffffffffffffffffffffffff1673ffffffffffffffffffffffffffffffffffffffff1681526020019081526020016000208190555050565b606060018054610ad290612928565b80601f0160208091040260200160405190810160405280929190818152602001828054610afe90612928565b8015610b4b5780601f10610b2057610100808354040283529160200191610b4b565b820191906000526020600020905b815481529060010190602001808311610b2e57829003601f168201915b5050505050905090565b60075481565b610b6d610b66610ee3565b83836112e9565b5050565b610b82610b7c610ee3565b83610fa4565b610bc1576040517f08c379a0000000000000000000000000000000000000000000000000000000008152600401610bb890612679565b60405180910390fd5b610bcd84848484611456565b50505050565b60086020528060005260406000206000915090505481565b6060610bf682610e77565b610c35576040517f08c379a0000000000000000000000000000000000000000000000000000000008152600401610c2c906125d9565b60405180910390fd5b6000600660008481526020019081526020016000208054610c5590612928565b80601f0160208091040260200160405190810160405280929190818152602001828054610c8190612928565b8015610cce5780601f10610ca357610100808354040283529160200191610cce565b820191906000526020600020905b815481529060010190602001808311610cb157829003601f168201915b505050505090506000610cdf6114b2565b9050600081511415610cf5578192505050610d38565b600082511115610d2a578082604051602001610d1292919061238f565b60405160208183030381529060405292505050610d38565b610d33846114c9565b925050505b919050565b600060076000815480929190610d529061298b565b9190505550610d6333600754611570565b610d6f6007548361158e565b6007549050919050565b6000600560008473ffffffffffffffffffffffffffffffffffffffff1673ffffffffffffffffffffffffffffffffffffffff16815260200190815260200160002060008373ffffffffffffffffffffffffffffffffffffffff1673ffffffffffffffffffffffffffffffffffffffff16815260200190815260200160002060009054906101000a900460ff16905092915050565b60007f01ffc9a7000000000000000000000000000000000000000000000000000000007bffffffffffffffffffffffffffffffffffffffffffffffffffffffff1916827bffffffffffffffffffffffffffffffffffffffffffffffffffffffff1916149050919050565b60008073ffffffffffffffffffffffffffffffffffffffff166002600084815260200190815260200160002060009054906101000a900473ffffffffffffffffffffffffffffffffffffffff1673ffffffffffffffffffffffffffffffffffffffff1614159050919050565b600033905090565b816004600083815260200190815260200160002060006101000a81548173ffffffffffffffffffffffffffffffffffffffff021916908373ffffffffffffffffffffffffffffffffffffffff160217905550808273ffffffffffffffffffffffffffffffffffffffff16610f5e8361089c565b73ffffffffffffffffffffffffffffffffffffffff167f8c5be1e5ebec7d5bd14f71427d1e84f3dd0314c0f7b2291e5b200ac8c7c3b92560405160405180910390a45050565b6000610faf82610e77565b610fee576040517f08c379a0000000000000000000000000000000000000000000000000000000008152600401610fe590612519565b60405180910390fd5b6000610ff98361089c565b90508073ffffffffffffffffffffffffffffffffffffffff168473ffffffffffffffffffffffffffffffffffffffff16148061103b575061103a8185610d79565b5b8061107957508373ffffffffffffffffffffffffffffffffffffffff166110618461067f565b73ffffffffffffffffffffffffffffffffffffffff16145b91505092915050565b8273ffffffffffffffffffffffffffffffffffffffff166110a28261089c565b73ffffffffffffffffffffffffffffffffffffffff16146110f8576040517f08c379a00000000000000000000000000000000000000000000000000000000081526004016110ef90612499565b60405180910390fd5b600073ffffffffffffffffffffffffffffffffffffffff168273ffffffffffffffffffffffffffffffffffffffff161415611168576040517f08c379a000000000000000000000000000000000000000000000000000000000815260040161115f906124d9565b60405180910390fd5b611173838383611602565b61117e600082610eeb565b6001600360008573ffffffffffffffffffffffffffffffffffffffff1673ffffffffffffffffffffffffffffffffffffffff16815260200190815260200160002060008282546111ce919061283e565b925050819055506001600360008473ffffffffffffffffffffffffffffffffffffffff1673ffffffffffffffffffffffffffffffffffffffff168152602001908152602001600020600082825461122591906127b7565b92505081905550816002600083815260200190815260200160002060006101000a81548173ffffffffffffffffffffffffffffffffffffffff021916908373ffffffffffffffffffffffffffffffffffffffff160217905550808273ffffffffffffffffffffffffffffffffffffffff168473ffffffffffffffffffffffffffffffffffffffff167fddf252ad1be2c89b69c2b068fc378daa952ba7f163c4a11628f55a4df523b3ef60405160405180910390a46112e4838383611607565b505050565b8173ffffffffffffffffffffffffffffffffffffffff168373ffffffffffffffffffffffffffffffffffffffff161415611358576040517f08c379a000000000000000000000000000000000000000000000000000000000815260040161134f906124f9565b60405180910390fd5b80600560008573ffffffffffffffffffffffffffffffffffffffff1673ffffffffffffffffffffffffffffffffffffffff16815260200190815260200160002060008473ffffffffffffffffffffffffffffffffffffffff1673ffffffffffffffffffffffffffffffffffffffff16815260200190815260200160002060006101000a81548160ff0219169083151502179055508173ffffffffffffffffffffffffffffffffffffffff168373ffffffffffffffffffffffffffffffffffffffff167f17307eab39ab6107e8899845ad3d59bd9653f200f220920489ca2b5937696c3183604051611449919061243c565b60405180910390a3505050565b611461848484611082565b61146d8484848461160c565b6114ac576040517f08c379a00000000000000000000000000000000000000000000000000000000081526004016114a390612479565b60405180910390fd5b50505050565b606060405180602001604052806000815250905090565b60606114d482610e77565b611513576040517f08c379a000000000000000000000000000000000000000000000000000000000815260040161150a90612619565b60405180910390fd5b600061151d6114b2565b9050600081511161153d5760405180602001604052806000815250611568565b80611547846117a3565b60405160200161155892919061238f565b6040516020818303038152906040525b915050919050565b61158a828260405180602001604052806000815250611950565b5050565b61159782610e77565b6115d6576040517f08c379a00000000000000000000000000000000000000000000000000000000081526004016115cd90612599565b60405180910390fd5b806006600084815260200190815260200160002090805190602001906115fd929190611ba8565b505050565b505050565b505050565b600061162d8473ffffffffffffffffffffffffffffffffffffffff166119ab565b15611796578373ffffffffffffffffffffffffffffffffffffffff1663150b7a02611656610ee3565b8786866040518563ffffffff1660e01b815260040161167894939291906123ce565b602060405180830381600087803b15801561169257600080fd5b505af19250505080156116c357506040513d601f19601f820116820180604052508101906116c09190611f54565b60015b611746573d80600081146116f3576040519150601f19603f3d011682016040523d82523d6000602084013e6116f8565b606091505b5060008151141561173e576040517f08c379a000000000000000000000000000000000000000000000000000000000815260040161173590612479565b60405180910390fd5b805181602001fd5b63150b7a0260e01b7bffffffffffffffffffffffffffffffffffffffffffffffffffffffff1916817bffffffffffffffffffffffffffffffffffffffffffffffffffffffff19161491505061179b565b600190505b949350505050565b606060008214156117eb576040518060400160405280600181526020017f3000000000000000000000000000000000000000000000000000000000000000815250905061194b565b600082905060005b6000821461181d5780806118069061298b565b915050600a82611816919061280d565b91506117f3565b60008167ffffffffffffffff81111561185f577f4e487b7100000000000000000000000000000000000000000000000000000000600052604160045260246000fd5b6040519080825280601f01601f1916602001820160405280156118915781602001600182028036833780820191505090505b5090505b60008514611944576001826118aa919061283e565b9150600a856118b991906129d4565b60306118c591906127b7565b60f81b818381518110611901577f4e487b7100000000000000000000000000000000000000000000000000000000600052603260045260246000fd5b60200101907effffffffffffffffffffffffffffffffffffffffffffffffffffffffffffff1916908160001a905350600a8561193d919061280d565b9450611895565b8093505050505b919050565b61195a83836119ce565b611967600084848461160c565b6119a6576040517f08c379a000000000000000000000000000000000000000000000000000000000815260040161199d90612479565b60405180910390fd5b505050565b6000808273ffffffffffffffffffffffffffffffffffffffff163b119050919050565b600073ffffffffffffffffffffffffffffffffffffffff168273ffffffffffffffffffffffffffffffffffffffff161415611a3e576040517f08c379a0000000000000000000000000000000000000000000000000000000008152600401611a35906125b9565b60405180910390fd5b611a4781610e77565b15611a87576040517f08c379a0000000000000000000000000000000000000000000000000000000008152600401611a7e906124b9565b60405180910390fd5b611a9360008383611602565b6001600360008473ffffffffffffffffffffffffffffffffffffffff1673ffffffffffffffffffffffffffffffffffffffff1681526020019081526020016000206000828254611ae391906127b7565b92505081905550816002600083815260200190815260200160002060006101000a81548173ffffffffffffffffffffffffffffffffffffffff021916908373ffffffffffffffffffffffffffffffffffffffff160217905550808273ffffffffffffffffffffffffffffffffffffffff16600073ffffffffffffffffffffffffffffffffffffffff167fddf252ad1be2c89b69c2b068fc378daa952ba7f163c4a11628f55a4df523b3ef60405160405180910390a4611ba460008383611607565b5050565b828054611bb490612928565b90600052602060002090601f016020900481019282611bd65760008555611c1d565b82601f10611bef57805160ff1916838001178555611c1d565b82800160010185558215611c1d579182015b82811115611c1c578251825591602001919060010190611c01565b5b509050611c2a9190611c2e565b5090565b5b80821115611c47576000816000905550600101611c2f565b5090565b6000611c5e611c59846126d9565b6126b4565b905082815260208101848484011115611c7657600080fd5b611c818482856128e6565b509392505050565b6000611c9c611c978461270a565b6126b4565b905082815260208101848484011115611cb457600080fd5b611cbf8482856128e6565b509392505050565b600081359050611cd681612f9f565b92915050565b600081359050611ceb81612fb6565b92915050565b600081359050611d0081612fcd565b92915050565b600081519050611d1581612fcd565b92915050565b600082601f830112611d2c57600080fd5b8135611d3c848260208601611c4b565b91505092915050565b600082601f830112611d5657600080fd5b8135611d66848260208601611c89565b91505092915050565b600081359050611d7e81612fe4565b92915050565b600060208284031215611d9657600080fd5b6000611da484828501611cc7565b91505092915050565b60008060408385031215611dc057600080fd5b6000611dce85828601611cc7565b9250506020611ddf85828601611cc7565b9150509250929050565b600080600060608486031215611dfe57600080fd5b6000611e0c86828701611cc7565b9350506020611e1d86828701611cc7565b9250506040611e2e86828701611d6f565b9150509250925092565b60008060008060808587031215611e4e57600080fd5b6000611e5c87828801611cc7565b9450506020611e6d87828801611cc7565b9350506040611e7e87828801611d6f565b925050606085013567ffffffffffffffff811115611e9b57600080fd5b611ea787828801611d1b565b91505092959194509250565b60008060408385031215611ec657600080fd5b6000611ed485828601611cc7565b9250506020611ee585828601611cdc565b9150509250929050565b60008060408385031215611f0257600080fd5b6000611f1085828601611cc7565b9250506020611f2185828601611d6f565b9150509250929050565b600060208284031215611f3d57600080fd5b6000611f4b84828501611cf1565b91505092915050565b600060208284031215611f6657600080fd5b6000611f7484828501611d06565b91505092915050565b600060208284031215611f8f57600080fd5b600082013567ffffffffffffffff811115611fa957600080fd5b611fb584828501611d45565b91505092915050565b600060208284031215611fd057600080fd5b6000611fde84828501611d6f565b91505092915050565b6000611ff38383612371565b60208301905092915050565b61200881612872565b82525050565b60006120198261274b565b6120238185612779565b935061202e8361273b565b8060005b8381101561205f5781516120468882611fe7565b97506120518361276c565b925050600181019050612032565b5085935050505092915050565b61207581612884565b82525050565b600061208682612756565b612090818561278a565b93506120a08185602086016128f5565b6120a981612ac1565b840191505092915050565b60006120bf82612761565b6120c9818561279b565b93506120d98185602086016128f5565b6120e281612ac1565b840191505092915050565b60006120f882612761565b61210281856127ac565b93506121128185602086016128f5565b80840191505092915050565b600061212b60328361279b565b915061213682612ad2565b604082019050919050565b600061214e60258361279b565b915061215982612b21565b604082019050919050565b6000612171601c8361279b565b915061217c82612b70565b602082019050919050565b600061219460248361279b565b915061219f82612b99565b604082019050919050565b60006121b760198361279b565b91506121c282612be8565b602082019050919050565b60006121da602c8361279b565b91506121e582612c11565b604082019050919050565b60006121fd60388361279b565b915061220882612c60565b604082019050919050565b6000612220602a8361279b565b915061222b82612caf565b604082019050919050565b600061224360298361279b565b915061224e82612cfe565b604082019050919050565b6000612266602e8361279b565b915061227182612d4d565b604082019050919050565b600061228960208361279b565b915061229482612d9c565b602082019050919050565b60006122ac60318361279b565b91506122b782612dc5565b604082019050919050565b60006122cf602c8361279b565b91506122da82612e14565b604082019050919050565b60006122f2602f8361279b565b91506122fd82612e63565b604082019050919050565b600061231560218361279b565b915061232082612eb2565b604082019050919050565b600061233860338361279b565b915061234382612f01565b604082019050919050565b600061235b60318361279b565b915061236682612f50565b604082019050919050565b61237a816128dc565b82525050565b612389816128dc565b82525050565b600061239b82856120ed565b91506123a782846120ed565b91508190509392505050565b60006020820190506123c86000830184611fff565b92915050565b60006080820190506123e36000830187611fff565b6123f06020830186611fff565b6123fd6040830185612380565b818103606083015261240f818461207b565b905095945050505050565b60006020820190508181036000830152612434818461200e565b905092915050565b6000602082019050612451600083018461206c565b92915050565b6000602082019050818103600083015261247181846120b4565b905092915050565b600060208201905081810360008301526124928161211e565b9050919050565b600060208201905081810360008301526124b281612141565b9050919050565b600060208201905081810360008301526124d281612164565b9050919050565b600060208201905081810360008301526124f281612187565b9050919050565b60006020820190508181036000830152612512816121aa565b9050919050565b60006020820190508181036000830152612532816121cd565b9050919050565b60006020820190508181036000830152612552816121f0565b9050919050565b6000602082019050818103600083015261257281612213565b9050919050565b6000602082019050818103600083015261259281612236565b9050919050565b600060208201905081810360008301526125b281612259565b9050919050565b600060208201905081810360008301526125d28161227c565b9050919050565b600060208201905081810360008301526125f28161229f565b9050919050565b60006020820190508181036000830152612612816122c2565b9050919050565b60006020820190508181036000830152612632816122e5565b9050919050565b6000602082019050818103600083015261265281612308565b9050919050565b600060208201905081810360008301526126728161232b565b9050919050565b600060208201905081810360008301526126928161234e565b9050919050565b60006020820190506126ae6000830184612380565b92915050565b60006126be6126cf565b90506126ca828261295a565b919050565b6000604051905090565b600067ffffffffffffffff8211156126f4576126f3612a92565b5b6126fd82612ac1565b9050602081019050919050565b600067ffffffffffffffff82111561272557612724612a92565b5b61272e82612ac1565b9050602081019050919050565b6000819050602082019050919050565b600081519050919050565b600081519050919050565b600081519050919050565b6000602082019050919050565b600082825260208201905092915050565b600082825260208201905092915050565b600082825260208201905092915050565b600081905092915050565b60006127c2826128dc565b91506127cd836128dc565b9250827fffffffffffffffffffffffffffffffffffffffffffffffffffffffffffffffff0382111561280257612801612a05565b5b828201905092915050565b6000612818826128dc565b9150612823836128dc565b92508261283357612832612a34565b5b828204905092915050565b6000612849826128dc565b9150612854836128dc565b92508282101561286757612866612a05565b5b828203905092915050565b600061287d826128bc565b9050919050565b60008115159050919050565b60007fffffffff0000000000000000000000000000000000000000000000000000000082169050919050565b600073ffffffffffffffffffffffffffffffffffffffff82169050919050565b6000819050919050565b82818337600083830152505050565b60005b838110156129135780820151818401526020810190506128f8565b83811115612922576000848401525b50505050565b6000600282049050600182168061294057607f821691505b6020821081141561295457612953612a63565b5b50919050565b61296382612ac1565b810181811067ffffffffffffffff8211171561298257612981612a92565b5b80604052505050565b6000612996826128dc565b91507fffffffffffffffffffffffffffffffffffffffffffffffffffffffffffffffff8214156129c9576129c8612a05565b5b600182019050919050565b60006129df826128dc565b91506129ea836128dc565b9250826129fa576129f9612a34565b5b828206905092915050565b7f4e487b7100000000000000000000000000000000000000000000000000000000600052601160045260246000fd5b7f4e487b7100000000000000000000000000000000000000000000000000000000600052601260045260246000fd5b7f4e487b7100000000000000000000000000000000000000000000000000000000600052602260045260246000fd5b7f4e487b7100000000000000000000000000000000000000000000000000000000600052604160045260246000fd5b6000601f19601f8301169050919050565b7f4552433732313a207472616e7366657220746f206e6f6e20455243373231526560008201527f63656976657220696d706c656d656e7465720000000000000000000000000000602082015250565b7f4552433732313a207472616e736665722066726f6d20696e636f72726563742060008201527f6f776e6572000000000000000000000000000000000000000000000000000000602082015250565b7f4552433732313a20746f6b656e20616c7265616479206d696e74656400000000600082015250565b7f4552433732313a207472616e7366657220746f20746865207a65726f2061646460008201527f7265737300000000000000000000000000000000000000000000000000000000602082015250565b7f4552433732313a20617070726f766520746f2063616c6c657200000000000000600082015250565b7f4552433732313a206f70657261746f7220717565727920666f72206e6f6e657860008201527f697374656e7420746f6b656e0000000000000000000000000000000000000000602082015250565b7f4552433732313a20617070726f76652063616c6c6572206973206e6f74206f7760008201527f6e6572206e6f7220617070726f76656420666f7220616c6c0000000000000000602082015250565b7f4552433732313a2062616c616e636520717565727920666f7220746865207a6560008201527f726f206164647265737300000000000000000000000000000000000000000000602082015250565b7f4552433732313a206f776e657220717565727920666f72206e6f6e657869737460008201527f656e7420746f6b656e0000000000000000000000000000000000000000000000602082015250565b7f45524337323155524953746f726167653a2055524920736574206f66206e6f6e60008201527f6578697374656e7420746f6b656e000000000000000000000000000000000000602082015250565b7f4552433732313a206d696e7420746f20746865207a65726f2061646472657373600082015250565b7f45524337323155524953746f726167653a2055524920717565727920666f722060008201527f6e6f6e6578697374656e7420746f6b656e000000000000000000000000000000602082015250565b7f4552433732313a20617070726f76656420717565727920666f72206e6f6e657860008201527f697374656e7420746f6b656e0000000000000000000000000000000000000000602082015250565b7f4552433732314d657461646174613a2055524920717565727920666f72206e6f60008201527f6e6578697374656e7420746f6b656e0000000000000000000000000000000000602082015250565b7f4552433732313a20617070726f76616c20746f2063757272656e74206f776e6560008201527f7200000000000000000000000000000000000000000000000000000000000000602082015250565b7f4d757374206f776e20746865206e667420796f752077616e7420746f2073656c60008201527f65637420617320796f75722070726f66696c6500000000000000000000000000602082015250565b7f4552433732313a207472616e736665722063616c6c6572206973206e6f74206f60008201527f776e6572206e6f7220617070726f766564000000000000000000000000000000602082015250565b612fa881612872565b8114612fb357600080fd5b50565b612fbf81612884565b8114612fca57600080fd5b50565b612fd681612890565b8114612fe157600080fd5b50565b612fed816128dc565b8114612ff857600080fd5b5056fea26469706673582212203faa69c50add75099c13337243d5781381c69d820dc7b4457c3a2b0dc07ea4f064736f6c63430008040033",
  "linkReferences": {},
  "deployedLinkReferences": {}
}