{
  "_format": "hh-sol-artifact-1",
  "contractName": "ProfileNFT",
  "sourceName": "src/backend/contracts/ProfileNFT.sol",
  "abi": [
    {
      "inputs": [],
      "stateMutability": "nonpayable",
      "type": "constructor"
    },
    {
      "anonymous": false,
      "inputs": [
        {
          "indexed": true,
          "internalType": "address",
          "name": "owner",
          "type": "address"
        },
        {
          "indexed": true,
          "internalType": "address",
          "name": "approved",
          "type": "address"
        },
        {
          "indexed": true,
          "internalType": "uint256",
          "name": "tokenId",
          "type": "uint256"
        }
      ],
      "name": "Approval",
      "type": "event"
    },
    {
      "anonymous": false,
      "inputs": [
        {
          "indexed": true,
          "internalType": "address",
          "name": "owner",
          "type": "address"
        },
        {
          "indexed": true,
          "internalType": "address",
          "name": "operator",
          "type": "address"
        },
        {
          "indexed": false,
          "internalType": "bool",
          "name": "approved",
          "type": "bool"
        }
      ],
      "name": "ApprovalForAll",
      "type": "event"
    },
    {
      "anonymous": false,
      "inputs": [
        {
          "indexed": true,
          "internalType": "address",
          "name": "from",
          "type": "address"
        },
        {
          "indexed": true,
          "internalType": "address",
          "name": "to",
          "type": "address"
        },
        {
          "indexed": true,
          "internalType": "uint256",
          "name": "tokenId",
          "type": "uint256"
        }
      ],
      "name": "Transfer",
      "type": "event"
    },
    {
      "inputs": [
        {
          "internalType": "address",
          "name": "to",
          "type": "address"
        },
        {
          "internalType": "uint256",
          "name": "tokenId",
          "type": "uint256"
        }
      ],
      "name": "approve",
      "outputs": [],
      "stateMutability": "nonpayable",
      "type": "function"
    },
    {
      "inputs": [
        {
          "internalType": "address",
          "name": "owner",
          "type": "address"
        }
      ],
      "name": "balanceOf",
      "outputs": [
        {
          "internalType": "uint256",
          "name": "",
          "type": "uint256"
        }
      ],
      "stateMutability": "view",
      "type": "function"
    },
    {
      "inputs": [
        {
          "internalType": "uint256",
          "name": "tokenId",
          "type": "uint256"
        }
      ],
      "name": "getApproved",
      "outputs": [
        {
          "internalType": "address",
          "name": "",
          "type": "address"
        }
      ],
      "stateMutability": "view",
      "type": "function"
    },
    {
      "inputs": [],
      "name": "getMyNfts",
      "outputs": [
        {
          "internalType": "uint256[]",
          "name": "_ids",
          "type": "uint256[]"
        }
      ],
      "stateMutability": "view",
      "type": "function"
    },
    {
      "inputs": [
        {
          "internalType": "address",
          "name": "owner",
          "type": "address"
        },
        {
          "internalType": "address",
          "name": "operator",
          "type": "address"
        }
      ],
      "name": "isApprovedForAll",
      "outputs": [
        {
          "internalType": "bool",
          "name": "",
          "type": "bool"
        }
      ],
      "stateMutability": "view",
      "type": "function"
    },
    {
      "inputs": [
        {
          "internalType": "string",
          "name": "_tokenURI",
          "type": "string"
        }
      ],
      "name": "mintProfile",
      "outputs": [
        {
          "internalType": "uint256",
          "name": "",
          "type": "uint256"
        }
      ],
      "stateMutability": "nonpayable",
      "type": "function"
    },
    {
      "inputs": [],
      "name": "name",
      "outputs": [
        {
          "internalType": "string",
          "name": "",
          "type": "string"
        }
      ],
      "stateMutability": "view",
      "type": "function"
    },
    {
      "inputs": [
        {
          "internalType": "uint256",
          "name": "tokenId",
          "type": "uint256"
        }
      ],
      "name": "ownerOf",
      "outputs": [
        {
          "internalType": "address",
          "name": "",
          "type": "address"
        }
      ],
      "stateMutability": "view",
      "type": "function"
    },
    {
      "inputs": [],
      "name": "profileTokenCount",
      "outputs": [
        {
          "internalType": "uint256",
          "name": "",
          "type": "uint256"
        }
      ],
      "stateMutability": "view",
      "type": "function"
    },
    {
      "inputs": [
        {
          "internalType": "address",
          "name": "",
          "type": "address"
        }
      ],
      "name": "profiles",
      "outputs": [
        {
          "internalType": "uint256",
          "name": "",
          "type": "uint256"
        }
      ],
      "stateMutability": "view",
      "type": "function"
    },
    {
      "inputs": [
        {
          "internalType": "address",
          "name": "from",
          "type": "address"
        },
        {
          "internalType": "address",
          "name": "to",
          "type": "address"
        },
        {
          "internalType": "uint256",
          "name": "tokenId",
          "type": "uint256"
        }
      ],
      "name": "safeTransferFrom",
      "outputs": [],
      "stateMutability": "nonpayable",
      "type": "function"
    },
    {
      "inputs": [
        {
          "internalType": "address",
          "name": "from",
          "type": "address"
        },
        {
          "internalType": "address",
          "name": "to",
          "type": "address"
        },
        {
          "internalType": "uint256",
          "name": "tokenId",
          "type": "uint256"
        },
        {
          "internalType": "bytes",
          "name": "_data",
          "type": "bytes"
        }
      ],
      "name": "safeTransferFrom",
      "outputs": [],
      "stateMutability": "nonpayable",
      "type": "function"
    },
    {
      "inputs": [
        {
          "internalType": "address",
          "name": "operator",
          "type": "address"
        },
        {
          "internalType": "bool",
          "name": "approved",
          "type": "bool"
        }
      ],
      "name": "setApprovalForAll",
      "outputs": [],
      "stateMutability": "nonpayable",
      "type": "function"
    },
    {
      "inputs": [
        {
          "internalType": "uint256",
          "name": "_id",
          "type": "uint256"
        }
      ],
      "name": "setProfile",
      "outputs": [],
      "stateMutability": "nonpayable",
      "type": "function"
    },
    {
      "inputs": [
        {
          "internalType": "bytes4",
          "name": "interfaceId",
          "type": "bytes4"
        }
      ],
      "name": "supportsInterface",
      "outputs": [
        {
          "internalType": "bool",
          "name": "",
          "type": "bool"
        }
      ],
      "stateMutability": "view",
      "type": "function"
    },
    {
      "inputs": [],
      "name": "symbol",
      "outputs": [
        {
          "internalType": "string",
          "name": "",
          "type": "string"
        }
      ],
      "stateMutability": "view",
      "type": "function"
    },
    {
      "inputs": [
        {
          "internalType": "uint256",
          "name": "tokenId",
          "type": "uint256"
        }
      ],
      "name": "tokenURI",
      "outputs": [
        {
          "internalType": "string",
          "name": "",
          "type": "string"
        }
      ],
      "stateMutability": "view",
      "type": "function"
    },
    {
      "inputs": [
        {
          "internalType": "address",
          "name": "from",
          "type": "address"
        },
        {
          "internalType": "address",
          "name": "to",
          "type": "address"
        },
        {
          "internalType": "uint256",
          "name": "tokenId",
          "type": "uint256"
        }
      ],
      "name": "transferFrom",
      "outputs": [],
      "stateMutability": "nonpayable",
      "type": "function"
    }
  ],
  "bytecode": "0x60806040523480156200001157600080fd5b506040518060400160405280600c81526020017f444170702050726f66696c6500000000000000000000000000000000000000008152506040518060400160405280600481526020017f4441505000000000000000000000000000000000000000000000000000000000815250816000908051906020019062000096929190620000b8565b508060019080519060200190620000af929190620000b8565b505050620001cd565b828054620000c69062000168565b90600052602060002090601f016020900481019282620000ea576000855562000136565b82601f106200010557805160ff191683800117855562000136565b8280016001018555821562000136579182015b828111156200013557825182559160200191906001019062000118565b5b50905062000145919062000149565b5090565b5b80821115620001645760008160009055506001016200014a565b5090565b600060028204905060018216806200018157607f821691505b602082108114156200019857620001976200019e565b5b50919050565b7f4e487b7100000000000000000000000000000000000000000000000000000000600052602260045260246000fd5b61303c80620001dd6000396000f3fe608060405234801561001057600080fd5b50600436106101165760003560e01c806385d3cb37116100a2578063ad55601d11610071578063ad55601d146102df578063b88d4fde1461030f578063bbe156271461032b578063c87b56dd1461035b578063e985e9c51461038b57610116565b806385d3cb371461026b57806392e028911461028757806395d89b41146102a5578063a22cb465146102c357610116565b8063095ea7b3116100e9578063095ea7b3146101b757806323b872dd146101d357806342842e0e146101ef5780636352211e1461020b57806370a082311461023b57610116565b806301ffc9a71461011b578063047b07bf1461014b57806306fdde0314610169578063081812fc14610187575b600080fd5b61013560048036038101906101309190611f36565b6103bb565b6040516101429190612447565b60405180910390f35b61015361049d565b6040516101609190612425565b60405180910390f35b6101716105ed565b60405161017e9190612462565b60405180910390f35b6101a1600480360381019061019c9190611fc9565b61067f565b6040516101ae91906123be565b60405180910390f35b6101d160048036038101906101cc9190611efa565b610704565b005b6101ed60048036038101906101e89190611df4565b61081c565b005b61020960048036038101906102049190611df4565b61087c565b005b61022560048036038101906102209190611fc9565b61089c565b60405161023291906123be565b60405180910390f35b61025560048036038101906102509190611d8f565b61094e565b60405161026291906126a4565b60405180910390f35b61028560048036038101906102809190611fc9565b610a06565b005b61028f610ac3565b60405161029c91906126a4565b60405180910390f35b6102ad610ac9565b6040516102ba9190612462565b60405180910390f35b6102dd60048036038101906102d89190611ebe565b610b5b565b005b6102f960048036038101906102f49190611f88565b610b71565b60405161030691906126a4565b60405180910390f35b61032960048036038101906103249190611e43565b610bb8565b005b61034560048036038101906103409190611d8f565b610c1a565b60405161035291906126a4565b60405180910390f35b61037560048036038101906103709190611fc9565b610c32565b6040516103829190612462565b60405180910390f35b6103a560048036038101906103a09190611db8565b610d84565b6040516103b29190612447565b60405180910390f35b60007f80ac58cd000000000000000000000000000000000000000000000000000000007bffffffffffffffffffffffffffffffffffffffffffffffffffffffff1916827bffffffffffffffffffffffffffffffffffffffffffffffffffffffff1916148061048657507f5b5e139f000000000000000000000000000000000000000000000000000000007bffffffffffffffffffffffffffffffffffffffffffffffffffffffff1916827bffffffffffffffffffffffffffffffffffffffffffffffffffffffff1916145b80610496575061049582610e18565b5b9050919050565b60606104a83361094e565b67ffffffffffffffff8111156104e7577f4e487b7100000000000000000000000000000000000000000000000000000000600052604160045260246000fd5b6040519080825280602002602001820160405280156105155781602001602082028036833780820191505090505b509050600080600754905060005b818110156105e7573373ffffffffffffffffffffffffffffffffffffffff1661055760018361055291906127c2565b61089c565b73ffffffffffffffffffffffffffffffffffffffff1614156105d45760018161058091906127c2565b8484815181106105b9577f4e487b7100000000000000000000000000000000000000000000000000000000600052603260045260246000fd5b60200260200101818152505082806105d090612996565b9350505b80806105df90612996565b915050610523565b50505090565b6060600080546105fc90612933565b80601f016020809104026020016040519081016040528092919081815260200182805461062890612933565b80156106755780601f1061064a57610100808354040283529160200191610675565b820191906000526020600020905b81548152906001019060200180831161065857829003601f168201915b5050505050905090565b600061068a82610e82565b6106c9576040517f08c379a00000000000000000000000000000000000000000000000000000000081526004016106c090612604565b60405180910390fd5b6004600083815260200190815260200160002060009054906101000a900473ffffffffffffffffffffffffffffffffffffffff169050919050565b600061070f8261089c565b90508073ffffffffffffffffffffffffffffffffffffffff168373ffffffffffffffffffffffffffffffffffffffff161415610780576040517f08c379a000000000000000000000000000000000000000000000000000000000815260040161077790612644565b60405180910390fd5b8073ffffffffffffffffffffffffffffffffffffffff1661079f610eee565b73ffffffffffffffffffffffffffffffffffffffff1614806107ce57506107cd816107c8610eee565b610d84565b5b61080d576040517f08c379a000000000000000000000000000000000000000000000000000000000815260040161080490612544565b60405180910390fd5b6108178383610ef6565b505050565b61082d610827610eee565b82610faf565b61086c576040517f08c379a000000000000000000000000000000000000000000000000000000000815260040161086390612684565b60405180910390fd5b61087783838361108d565b505050565b61089783838360405180602001604052806000815250610bb8565b505050565b6000806002600084815260200190815260200160002060009054906101000a900473ffffffffffffffffffffffffffffffffffffffff169050600073ffffffffffffffffffffffffffffffffffffffff168173ffffffffffffffffffffffffffffffffffffffff161415610945576040517f08c379a000000000000000000000000000000000000000000000000000000000815260040161093c90612584565b60405180910390fd5b80915050919050565b60008073ffffffffffffffffffffffffffffffffffffffff168273ffffffffffffffffffffffffffffffffffffffff1614156109bf576040517f08c379a00000000000000000000000000000000000000000000000000000000081526004016109b690612564565b60405180910390fd5b600360008373ffffffffffffffffffffffffffffffffffffffff1673ffffffffffffffffffffffffffffffffffffffff168152602001908152602001600020549050919050565b3373ffffffffffffffffffffffffffffffffffffffff16610a268261089c565b73ffffffffffffffffffffffffffffffffffffffff1614610a7c576040517f08c379a0000000000000000000000000000000000000000000000000000000008152600401610a7390612664565b60405180910390fd5b80600860003373ffffffffffffffffffffffffffffffffffffffff1673ffffffffffffffffffffffffffffffffffffffff1681526020019081526020016000208190555050565b60075481565b606060018054610ad890612933565b80601f0160208091040260200160405190810160405280929190818152602001828054610b0490612933565b8015610b515780601f10610b2657610100808354040283529160200191610b51565b820191906000526020600020905b815481529060010190602001808311610b3457829003601f168201915b5050505050905090565b610b6d610b66610eee565b83836112f4565b5050565b600060076000815480929190610b8690612996565b9190505550610b9733600754611461565b610ba36007548361147f565b610bae600754610a06565b6007549050919050565b610bc9610bc3610eee565b83610faf565b610c08576040517f08c379a0000000000000000000000000000000000000000000000000000000008152600401610bff90612684565b60405180910390fd5b610c14848484846114f3565b50505050565b60086020528060005260406000206000915090505481565b6060610c3d82610e82565b610c7c576040517f08c379a0000000000000000000000000000000000000000000000000000000008152600401610c73906125e4565b60405180910390fd5b6000600660008481526020019081526020016000208054610c9c90612933565b80601f0160208091040260200160405190810160405280929190818152602001828054610cc890612933565b8015610d155780601f10610cea57610100808354040283529160200191610d15565b820191906000526020600020905b815481529060010190602001808311610cf857829003601f168201915b505050505090506000610d2661154f565b9050600081511415610d3c578192505050610d7f565b600082511115610d71578082604051602001610d5992919061239a565b60405160208183030381529060405292505050610d7f565b610d7a84611566565b925050505b919050565b6000600560008473ffffffffffffffffffffffffffffffffffffffff1673ffffffffffffffffffffffffffffffffffffffff16815260200190815260200160002060008373ffffffffffffffffffffffffffffffffffffffff1673ffffffffffffffffffffffffffffffffffffffff16815260200190815260200160002060009054906101000a900460ff16905092915050565b60007f01ffc9a7000000000000000000000000000000000000000000000000000000007bffffffffffffffffffffffffffffffffffffffffffffffffffffffff1916827bffffffffffffffffffffffffffffffffffffffffffffffffffffffff1916149050919050565b60008073ffffffffffffffffffffffffffffffffffffffff166002600084815260200190815260200160002060009054906101000a900473ffffffffffffffffffffffffffffffffffffffff1673ffffffffffffffffffffffffffffffffffffffff1614159050919050565b600033905090565b816004600083815260200190815260200160002060006101000a81548173ffffffffffffffffffffffffffffffffffffffff021916908373ffffffffffffffffffffffffffffffffffffffff160217905550808273ffffffffffffffffffffffffffffffffffffffff16610f698361089c565b73ffffffffffffffffffffffffffffffffffffffff167f8c5be1e5ebec7d5bd14f71427d1e84f3dd0314c0f7b2291e5b200ac8c7c3b92560405160405180910390a45050565b6000610fba82610e82565b610ff9576040517f08c379a0000000000000000000000000000000000000000000000000000000008152600401610ff090612524565b60405180910390fd5b60006110048361089c565b90508073ffffffffffffffffffffffffffffffffffffffff168473ffffffffffffffffffffffffffffffffffffffff16148061107357508373ffffffffffffffffffffffffffffffffffffffff1661105b8461067f565b73ffffffffffffffffffffffffffffffffffffffff16145b8061108457506110838185610d84565b5b91505092915050565b8273ffffffffffffffffffffffffffffffffffffffff166110ad8261089c565b73ffffffffffffffffffffffffffffffffffffffff1614611103576040517f08c379a00000000000000000000000000000000000000000000000000000000081526004016110fa906124a4565b60405180910390fd5b600073ffffffffffffffffffffffffffffffffffffffff168273ffffffffffffffffffffffffffffffffffffffff161415611173576040517f08c379a000000000000000000000000000000000000000000000000000000000815260040161116a906124e4565b60405180910390fd5b61117e83838361160d565b611189600082610ef6565b6001600360008573ffffffffffffffffffffffffffffffffffffffff1673ffffffffffffffffffffffffffffffffffffffff16815260200190815260200160002060008282546111d99190612849565b925050819055506001600360008473ffffffffffffffffffffffffffffffffffffffff1673ffffffffffffffffffffffffffffffffffffffff168152602001908152602001600020600082825461123091906127c2565b92505081905550816002600083815260200190815260200160002060006101000a81548173ffffffffffffffffffffffffffffffffffffffff021916908373ffffffffffffffffffffffffffffffffffffffff160217905550808273ffffffffffffffffffffffffffffffffffffffff168473ffffffffffffffffffffffffffffffffffffffff167fddf252ad1be2c89b69c2b068fc378daa952ba7f163c4a11628f55a4df523b3ef60405160405180910390a46112ef838383611612565b505050565b8173ffffffffffffffffffffffffffffffffffffffff168373ffffffffffffffffffffffffffffffffffffffff161415611363576040517f08c379a000000000000000000000000000000000000000000000000000000000815260040161135a90612504565b60405180910390fd5b80600560008573ffffffffffffffffffffffffffffffffffffffff1673ffffffffffffffffffffffffffffffffffffffff16815260200190815260200160002060008473ffffffffffffffffffffffffffffffffffffffff1673ffffffffffffffffffffffffffffffffffffffff16815260200190815260200160002060006101000a81548160ff0219169083151502179055508173ffffffffffffffffffffffffffffffffffffffff168373ffffffffffffffffffffffffffffffffffffffff167f17307eab39ab6107e8899845ad3d59bd9653f200f220920489ca2b5937696c31836040516114549190612447565b60405180910390a3505050565b61147b828260405180602001604052806000815250611617565b5050565b61148882610e82565b6114c7576040517f08c379a00000000000000000000000000000000000000000000000000000000081526004016114be906125a4565b60405180910390fd5b806006600084815260200190815260200160002090805190602001906114ee929190611bb3565b505050565b6114fe84848461108d565b61150a84848484611672565b611549576040517f08c379a000000000000000000000000000000000000000000000000000000000815260040161154090612484565b60405180910390fd5b50505050565b606060405180602001604052806000815250905090565b606061157182610e82565b6115b0576040517f08c379a00000000000000000000000000000000000000000000000000000000081526004016115a790612624565b60405180910390fd5b60006115ba61154f565b905060008151116115da5760405180602001604052806000815250611605565b806115e484611809565b6040516020016115f592919061239a565b6040516020818303038152906040525b915050919050565b505050565b505050565b61162183836119b6565b61162e6000848484611672565b61166d576040517f08c379a000000000000000000000000000000000000000000000000000000000815260040161166490612484565b60405180910390fd5b505050565b60006116938473ffffffffffffffffffffffffffffffffffffffff16611b90565b156117fc578373ffffffffffffffffffffffffffffffffffffffff1663150b7a026116bc610eee565b8786866040518563ffffffff1660e01b81526004016116de94939291906123d9565b602060405180830381600087803b1580156116f857600080fd5b505af192505050801561172957506040513d601f19601f820116820180604052508101906117269190611f5f565b60015b6117ac573d8060008114611759576040519150601f19603f3d011682016040523d82523d6000602084013e61175e565b606091505b506000815114156117a4576040517f08c379a000000000000000000000000000000000000000000000000000000000815260040161179b90612484565b60405180910390fd5b805181602001fd5b63150b7a0260e01b7bffffffffffffffffffffffffffffffffffffffffffffffffffffffff1916817bffffffffffffffffffffffffffffffffffffffffffffffffffffffff191614915050611801565b600190505b949350505050565b60606000821415611851576040518060400160405280600181526020017f300000000000000000000000000000000000000000000000000000000000000081525090506119b1565b600082905060005b6000821461188357808061186c90612996565b915050600a8261187c9190612818565b9150611859565b60008167ffffffffffffffff8111156118c5577f4e487b7100000000000000000000000000000000000000000000000000000000600052604160045260246000fd5b6040519080825280601f01601f1916602001820160405280156118f75781602001600182028036833780820191505090505b5090505b600085146119aa576001826119109190612849565b9150600a8561191f91906129df565b603061192b91906127c2565b60f81b818381518110611967577f4e487b7100000000000000000000000000000000000000000000000000000000600052603260045260246000fd5b60200101907effffffffffffffffffffffffffffffffffffffffffffffffffffffffffffff1916908160001a905350600a856119a39190612818565b94506118fb565b8093505050505b919050565b600073ffffffffffffffffffffffffffffffffffffffff168273ffffffffffffffffffffffffffffffffffffffff161415611a26576040517f08c379a0000000000000000000000000000000000000000000000000000000008152600401611a1d906125c4565b60405180910390fd5b611a2f81610e82565b15611a6f576040517f08c379a0000000000000000000000000000000000000000000000000000000008152600401611a66906124c4565b60405180910390fd5b611a7b6000838361160d565b6001600360008473ffffffffffffffffffffffffffffffffffffffff1673ffffffffffffffffffffffffffffffffffffffff1681526020019081526020016000206000828254611acb91906127c2565b92505081905550816002600083815260200190815260200160002060006101000a81548173ffffffffffffffffffffffffffffffffffffffff021916908373ffffffffffffffffffffffffffffffffffffffff160217905550808273ffffffffffffffffffffffffffffffffffffffff16600073ffffffffffffffffffffffffffffffffffffffff167fddf252ad1be2c89b69c2b068fc378daa952ba7f163c4a11628f55a4df523b3ef60405160405180910390a4611b8c60008383611612565b5050565b6000808273ffffffffffffffffffffffffffffffffffffffff163b119050919050565b828054611bbf90612933565b90600052602060002090601f016020900481019282611be15760008555611c28565b82601f10611bfa57805160ff1916838001178555611c28565b82800160010185558215611c28579182015b82811115611c27578251825591602001919060010190611c0c565b5b509050611c359190611c39565b5090565b5b80821115611c52576000816000905550600101611c3a565b5090565b6000611c69611c64846126e4565b6126bf565b905082815260208101848484011115611c8157600080fd5b611c8c8482856128f1565b509392505050565b6000611ca7611ca284612715565b6126bf565b905082815260208101848484011115611cbf57600080fd5b611cca8482856128f1565b509392505050565b600081359050611ce181612faa565b92915050565b600081359050611cf681612fc1565b92915050565b600081359050611d0b81612fd8565b92915050565b600081519050611d2081612fd8565b92915050565b600082601f830112611d3757600080fd5b8135611d47848260208601611c56565b91505092915050565b600082601f830112611d6157600080fd5b8135611d71848260208601611c94565b91505092915050565b600081359050611d8981612fef565b92915050565b600060208284031215611da157600080fd5b6000611daf84828501611cd2565b91505092915050565b60008060408385031215611dcb57600080fd5b6000611dd985828601611cd2565b9250506020611dea85828601611cd2565b9150509250929050565b600080600060608486031215611e0957600080fd5b6000611e1786828701611cd2565b9350506020611e2886828701611cd2565b9250506040611e3986828701611d7a565b9150509250925092565b60008060008060808587031215611e5957600080fd5b6000611e6787828801611cd2565b9450506020611e7887828801611cd2565b9350506040611e8987828801611d7a565b925050606085013567ffffffffffffffff811115611ea657600080fd5b611eb287828801611d26565b91505092959194509250565b60008060408385031215611ed157600080fd5b6000611edf85828601611cd2565b9250506020611ef085828601611ce7565b9150509250929050565b60008060408385031215611f0d57600080fd5b6000611f1b85828601611cd2565b9250506020611f2c85828601611d7a565b9150509250929050565b600060208284031215611f4857600080fd5b6000611f5684828501611cfc565b91505092915050565b600060208284031215611f7157600080fd5b6000611f7f84828501611d11565b91505092915050565b600060208284031215611f9a57600080fd5b600082013567ffffffffffffffff811115611fb457600080fd5b611fc084828501611d50565b91505092915050565b600060208284031215611fdb57600080fd5b6000611fe984828501611d7a565b91505092915050565b6000611ffe838361237c565b60208301905092915050565b6120138161287d565b82525050565b600061202482612756565b61202e8185612784565b935061203983612746565b8060005b8381101561206a5781516120518882611ff2565b975061205c83612777565b92505060018101905061203d565b5085935050505092915050565b6120808161288f565b82525050565b600061209182612761565b61209b8185612795565b93506120ab818560208601612900565b6120b481612acc565b840191505092915050565b60006120ca8261276c565b6120d481856127a6565b93506120e4818560208601612900565b6120ed81612acc565b840191505092915050565b60006121038261276c565b61210d81856127b7565b935061211d818560208601612900565b80840191505092915050565b60006121366032836127a6565b915061214182612add565b604082019050919050565b60006121596025836127a6565b915061216482612b2c565b604082019050919050565b600061217c601c836127a6565b915061218782612b7b565b602082019050919050565b600061219f6024836127a6565b91506121aa82612ba4565b604082019050919050565b60006121c26019836127a6565b91506121cd82612bf3565b602082019050919050565b60006121e5602c836127a6565b91506121f082612c1c565b604082019050919050565b60006122086038836127a6565b915061221382612c6b565b604082019050919050565b600061222b602a836127a6565b915061223682612cba565b604082019050919050565b600061224e6029836127a6565b915061225982612d09565b604082019050919050565b6000612271602e836127a6565b915061227c82612d58565b604082019050919050565b60006122946020836127a6565b915061229f82612da7565b602082019050919050565b60006122b76031836127a6565b91506122c282612dd0565b604082019050919050565b60006122da602c836127a6565b91506122e582612e1f565b604082019050919050565b60006122fd602f836127a6565b915061230882612e6e565b604082019050919050565b60006123206021836127a6565b915061232b82612ebd565b604082019050919050565b60006123436033836127a6565b915061234e82612f0c565b604082019050919050565b60006123666031836127a6565b915061237182612f5b565b604082019050919050565b612385816128e7565b82525050565b612394816128e7565b82525050565b60006123a682856120f8565b91506123b282846120f8565b91508190509392505050565b60006020820190506123d3600083018461200a565b92915050565b60006080820190506123ee600083018761200a565b6123fb602083018661200a565b612408604083018561238b565b818103606083015261241a8184612086565b905095945050505050565b6000602082019050818103600083015261243f8184612019565b905092915050565b600060208201905061245c6000830184612077565b92915050565b6000602082019050818103600083015261247c81846120bf565b905092915050565b6000602082019050818103600083015261249d81612129565b9050919050565b600060208201905081810360008301526124bd8161214c565b9050919050565b600060208201905081810360008301526124dd8161216f565b9050919050565b600060208201905081810360008301526124fd81612192565b9050919050565b6000602082019050818103600083015261251d816121b5565b9050919050565b6000602082019050818103600083015261253d816121d8565b9050919050565b6000602082019050818103600083015261255d816121fb565b9050919050565b6000602082019050818103600083015261257d8161221e565b9050919050565b6000602082019050818103600083015261259d81612241565b9050919050565b600060208201905081810360008301526125bd81612264565b9050919050565b600060208201905081810360008301526125dd81612287565b9050919050565b600060208201905081810360008301526125fd816122aa565b9050919050565b6000602082019050818103600083015261261d816122cd565b9050919050565b6000602082019050818103600083015261263d816122f0565b9050919050565b6000602082019050818103600083015261265d81612313565b9050919050565b6000602082019050818103600083015261267d81612336565b9050919050565b6000602082019050818103600083015261269d81612359565b9050919050565b60006020820190506126b9600083018461238b565b92915050565b60006126c96126da565b90506126d58282612965565b919050565b6000604051905090565b600067ffffffffffffffff8211156126ff576126fe612a9d565b5b61270882612acc565b9050602081019050919050565b600067ffffffffffffffff8211156127305761272f612a9d565b5b61273982612acc565b9050602081019050919050565b6000819050602082019050919050565b600081519050919050565b600081519050919050565b600081519050919050565b6000602082019050919050565b600082825260208201905092915050565b600082825260208201905092915050565b600082825260208201905092915050565b600081905092915050565b60006127cd826128e7565b91506127d8836128e7565b9250827fffffffffffffffffffffffffffffffffffffffffffffffffffffffffffffffff0382111561280d5761280c612a10565b5b828201905092915050565b6000612823826128e7565b915061282e836128e7565b92508261283e5761283d612a3f565b5b828204905092915050565b6000612854826128e7565b915061285f836128e7565b92508282101561287257612871612a10565b5b828203905092915050565b6000612888826128c7565b9050919050565b60008115159050919050565b60007fffffffff0000000000000000000000000000000000000000000000000000000082169050919050565b600073ffffffffffffffffffffffffffffffffffffffff82169050919050565b6000819050919050565b82818337600083830152505050565b60005b8381101561291e578082015181840152602081019050612903565b8381111561292d576000848401525b50505050565b6000600282049050600182168061294b57607f821691505b6020821081141561295f5761295e612a6e565b5b50919050565b61296e82612acc565b810181811067ffffffffffffffff8211171561298d5761298c612a9d565b5b80604052505050565b60006129a1826128e7565b91507fffffffffffffffffffffffffffffffffffffffffffffffffffffffffffffffff8214156129d4576129d3612a10565b5b600182019050919050565b60006129ea826128e7565b91506129f5836128e7565b925082612a0557612a04612a3f565b5b828206905092915050565b7f4e487b7100000000000000000000000000000000000000000000000000000000600052601160045260246000fd5b7f4e487b7100000000000000000000000000000000000000000000000000000000600052601260045260246000fd5b7f4e487b7100000000000000000000000000000000000000000000000000000000600052602260045260246000fd5b7f4e487b7100000000000000000000000000000000000000000000000000000000600052604160045260246000fd5b6000601f19601f8301169050919050565b7f4552433732313a207472616e7366657220746f206e6f6e20455243373231526560008201527f63656976657220696d706c656d656e7465720000000000000000000000000000602082015250565b7f4552433732313a207472616e736665722066726f6d20696e636f72726563742060008201527f6f776e6572000000000000000000000000000000000000000000000000000000602082015250565b7f4552433732313a20746f6b656e20616c7265616479206d696e74656400000000600082015250565b7f4552433732313a207472616e7366657220746f20746865207a65726f2061646460008201527f7265737300000000000000000000000000000000000000000000000000000000602082015250565b7f4552433732313a20617070726f766520746f2063616c6c657200000000000000600082015250565b7f4552433732313a206f70657261746f7220717565727920666f72206e6f6e657860008201527f697374656e7420746f6b656e0000000000000000000000000000000000000000602082015250565b7f4552433732313a20617070726f76652063616c6c6572206973206e6f74206f7760008201527f6e6572206e6f7220617070726f76656420666f7220616c6c0000000000000000602082015250565b7f4552433732313a2062616c616e636520717565727920666f7220746865207a6560008201527f726f206164647265737300000000000000000000000000000000000000000000602082015250565b7f4552433732313a206f776e657220717565727920666f72206e6f6e657869737460008201527f656e7420746f6b656e0000000000000000000000000000000000000000000000602082015250565b7f45524337323155524953746f726167653a2055524920736574206f66206e6f6e60008201527f6578697374656e7420746f6b656e000000000000000000000000000000000000602082015250565b7f4552433732313a206d696e7420746f20746865207a65726f2061646472657373600082015250565b7f45524337323155524953746f726167653a2055524920717565727920666f722060008201527f6e6f6e6578697374656e7420746f6b656e000000000000000000000000000000602082015250565b7f4552433732313a20617070726f76656420717565727920666f72206e6f6e657860008201527f697374656e7420746f6b656e0000000000000000000000000000000000000000602082015250565b7f4552433732314d657461646174613a2055524920717565727920666f72206e6f60008201527f6e6578697374656e7420746f6b656e0000000000000000000000000000000000602082015250565b7f4552433732313a20617070726f76616c20746f2063757272656e74206f776e6560008201527f7200000000000000000000000000000000000000000000000000000000000000602082015250565b7f4d757374206f776e20746865206e667420796f752077616e7420746f2073656c60008201527f65637420617320796f75722070726f66696c6500000000000000000000000000602082015250565b7f4552433732313a207472616e736665722063616c6c6572206973206e6f74206f60008201527f776e6572206e6f7220617070726f766564000000000000000000000000000000602082015250565b612fb38161287d565b8114612fbe57600080fd5b50565b612fca8161288f565b8114612fd557600080fd5b50565b612fe18161289b565b8114612fec57600080fd5b50565b612ff8816128e7565b811461300357600080fd5b5056fea2646970667358221220d8cefffad4d58108e4a8e18a69462bb9828331db278aa028c36eba5773b4531a64736f6c63430008040033",
  "linkReferences": {},
  "deployedLinkReferences": {}
}